:10000000021D7B740E252FF582E43403F5832290C4
:100010000001AA2DA92E0201AD90030BE0FFE52FF0
:10002000C39F22021820AFA77892760175A72043BC
:10003000B38075A72043B3408FA72202070BA80502
:100040001FEF600AE5AE20E7FBA6AF0880F2E5AE41
:1000500020E7FBEB4420F5AEA6AF22022F84E4FF9D
:100060001237F27892760575AE1175AF20E5AE20A5
:10007000E7FB2202392F7882E6FF22020F35AEA776
:10008000E4F5A753C1F4A2003333333354F8FDEF42
:1000900044C44D42C143D6018EA7220229CBE709B1
:1000A000F608DFFA8046E709F208DFFA803E888228
:1000B0008C83E709F0A3DFFA8032E309F608DFFA60
:1000C0008078E309F208DFFA807088828C83E30984
:1000D000F0A3DFFA806489828A83E0A3F608DFFA5E
:1000E000805889828A83E0A3F208DFFA804C80D2AC
:1000F00080FA80C680D4806980F28033801080A628
:1001000080EA809A80A880DA80E280CA803389827F
:100110008A83ECFAE493A3C8C582C8CCC583CCF02B
:10012000A3C8C582C8CCC583CCDFE9DEE7800D89D2
:10013000828A83E493A3F608DFF9ECFAA9F0EDFBD9
:100140002289828A83ECFAE0A3C8C582C8CCC58321
:10015000CCF0A3C8C582C8CCC583CCDFEADEE8807A
:10016000DB89828A83E493A3F208DFF980CC88F0EC
:10017000EF60010E4E60C388F0ED2402B40400501D
:10018000B9F582EB2402B4040050AF232345822347
:100190009000EE73BB010689828A83E0225002E759
:1001A00022BBFE02E32289828A83E49322BB010CF4
:1001B000E58229F582E5833AF583E0225006E925B8
:1001C00082F8E622BBFE06E92582F8E222E58229D2
:1001D000F582E5833AF583E49322BB010689828A9E
:1001E00083F0225002F722BBFE01F322C5F0F8A3F0
:1001F000E028F0C5F0F8E582158270021583E0383A
:10020000F022A3F8E0C5F025F0F0E5821582700237
:100210001583E0C838F0E822BB0110E58229F58299
:10022000E5833AF583E0F5F0A3E0225009E9258261
:10023000F886F008E622BBFE0AE92582F8E2F5F02E
:1002400008E222E5832AF583E993F5F0A3E99322F6
:10025000EB9FF5F0EA9E42F0E99D42F0EC6480C825
:1002600064809845F022A42582F582E5F03583F577
:100270008322E6FB08E6FA08E6F922EBF608EAF63E
:1002800008E9F622BB010789828A830204D050055F
:10029000E9F8020272BBFE05E9F80204D989828AF4
:1002A000830204E2BB010DE58229F582E5833AF57C
:1002B000830204D05007E92582F8020272BBFE07D0
:1002C000E92582F80204D9E58229F582E5833AF529
:1002D000830204E2D083D082F8E493701274019315
:1002E000700DA3A393F8740193F5828883E473746B
:1002F00002936860EFA3A3A380DFE3F5F009E208AF
:10030000B5F06BDFF58067E3F5F009E608B5F05E60
:10031000DFF5805A87F009E608B5F052DFF6804E27
:1003200087F009E208B5F046DFF6804288828C83C8
:1003300087F009E0A3B5F036DFF6803288828C833F
:1003400087F009E493A3B5F025DFF5802188828C3E
:1003500083E3F5F009E0A3B5F014DFF5801088829F
:100360008C83E3F5F009E493A3B5F002DFF4020413
:1003700029808780E9809080D4803E8015806E80BF
:100380007E809D80B7808D80A380518074803C02E8
:10039000043589828A83ECFAE493F5F0A3C8C58218
:1003A000C8CCC583CCE493A3C8C582C8CCC583CCD4
:1003B000B5F076DFE3DEE1807089828A83E493F52D
:1003C000F0A3E208B5F062DFF4805E89828A83E000
:1003D000F5F0A3E608B5F051DFF5804D89828A83F8
:1003E000E0F5F0A3E208B5F040DFF5803C89828AB1
:1003F00083E493F5F0A3E608B5F02EDFF4802A80BD
:1004000002805789828A83ECFAE493F5F0A3C8C589
:1004100082C8CCC583CCE0A3C8C582C8CCC583CC78
:10042000B5F006DFE4DEE280007FFFB5F0020F22C8
:1004300040027F012289828A83ECFAE0F5F0A3C8AA
:10044000C582C8CCC583CCE0A3C8C582C8CCC5834F
:10045000CCB5F0D5DFE5DEE380CF89828A83ECFA84
:10046000E0F5F0A3C8C582C8CCC583CCE493A3C88B
:10047000C582C8CCC583CCB5F0AFDFE4DEE280A98D
:1004800088F0EF60010E4E60ABED2402B404005022
:1004900098F582EB2402B40400508E232345822376
:1004A00090037173EF4E6012EF60010EEDBB010B14
:1004B00089828A83F0A3DFFCDEFA2289F05007F7F5
:1004C00009DFFCA9F022BBFEFCF309DFFCA9F02246
:1004D000E0FBA3E0FAA3E0F922E2FB08E2FA08E27B
:1004E000F922E493FB740193FA740293F922301217
:1004F0000B2013030206E6C2120206E690016BE02F
:100500001202D4053701053D02069C0305FF0405D0
:100510005105060806055C0706A40806BC0906ACDA
:100520000A06B40B06C40C06C90D05460E06D80F04
:1005300006E010000006E612238E0206E6121AF309
:10054000120E570206E690016CE0FF1239630206B4
:10055000E690016CE0FF1235080206E690016CE0BF
:10056000F528A3E0F529A3E0F52AA3E0F52BA3E005
:10057000F527A3E0F525E52764026038AF257E0066
:10058000D3EF943974809480402A121B0B24C71235
:1005900006FC121B2670020579121AAC40077F0474
:1005A00012305140EDC2112012077F041230515019
:1005B00003020647753001753101753272753301DA
:1005C00075340075352F7B007A007928AD2512151A
:1005D00062E527640170030206E6121B1AF54D85D9
:1005E000254EC2037F0212100F121B2670020579DE
:1005F000121AAC40077F0212305140ED02069512EC
:100600001AF31232720206E690016DE0F525A3E0BE
:10061000F526AF257E00D3EF943C74809480403162
:10062000121B0B24C41206FC121B26700205791241
:100630001AAC40077F0412305140EDC2112012075E
:100640007F04123051500A7F041222A3D2120206F4
:10065000E690016CE0FF75300175310075322F8531
:1006600025338526347B017A01796F122E42121BC5
:100670001AE5262401F54EE433F54DC2037F02123C
:10068000100F121B2670020579121AAC40077F0268
:1006900012305140ED7F021222A3804A121AF31247
:1006A00027158042121AF31209A5803A121AE7128E
:1006B00038D28032121AE71238DB802A121AE71277
:1006C00028FE80221237B080071237B0780076A556
:1006D000E4F5A775EF12800E121AF3121269800664
:1006E000121AF3122813121ACA7B017A01796B7558
:1006F0005000755140D2037F04021B37F551EE3490
:10070000FFF550C2037F04121B3722C0E0C0F0C0C7
:1007100083C082C0D075D000C000C001C002C00339
:10072000C004C005C006C00775A70020C70D7F0222
:100730001233F1123577C2C0020886E5C054F012B8
:1007400002D408390008671007F72007DB4007B616
:10075000800776C0075BE00000087F900340E090D0
:10076000033E700AE04401F5C2D20A020833E0F504
:10077000C2C20A02083330C136300A1090033FE08B
:1007800014F06003020884C2C1020884900340E0B0
:100790006012900338123115E0F5C2900340E01466
:1007A000F002088490033FE06029D2C50208847FEC
:1007B000011233F18020900336123115E5C2F0901A
:1007C000033FE0600C14F06003020884C2C1020819
:1007D00084C2C11239AAD2C402087520C10302081A
:1007E00084900342E014F06009123112E0F5C20275
:1007F00008847F0302088130C213900343E0FF1492
:10080000F0EF6004D2098005E4FF1233F1E5C21372
:10081000B3920AA20AA0085005900341E4F0200A0E
:1008200012900341E070032008031239B312311211
:10083000E0F5C2C2C5D208804B900341E0FF04F04E
:1008400090033AE0FCA3E02FF582E43CF583E5C297
:10085000F0900344E0FF900341E06F70271239B33A
:10086000900341E4F0801D300A09900341E06003E9
:100870001239B3C2C4A20992C5C209C20880057F59
:10088000021233F1C2C0D007D006D005D004D00385
:10089000D002D001D000D0D0D082D083D0F0D0E030
:1008A00032E4FDFC754AFF7884E664806003020947
:1008B000A2122C4DF546EEFFE46003020980EF24FE
:1008C000FE601F14603924026003020980E546605F
:1008D0000302098078B0122C541201947C00FD02AE
:1008E0000980E546600302098078B3122C54900019
:1008F00002120218FAE5F0FFEAFCEFFD0209807827
:10090000B612027275F003E546A4F58285F08312F3
:1009100002A4122C57AF467E00EF700BFC7D0478CA
:100920008CE65480F68059EF64EE4E700E7547FFEA
:10093000754834754944FC7D128045122C46FF4EA3
:10094000600AEF64097003EE64047034E546C3780E
:100950008196502CAB47AA48A9499000011201ADDD
:100960007C00FD120194547FFF788CE654804FFF89
:10097000F674012549F549E43548F548EF4480F619
:10098000ED4C601E788AE6FE08E6FFD3ED9FEC9EF4
:100990004004AC06AD07AB47AA48A949123344E46A
:1009A000F54AAF4A228B2C8A2D892E900001120124
:1009B000ADF531120194146062147003020A8314BD
:1009C0007003020A9F24036003020AA6E50B640178
:1009D0007019C2ACF530E530C39531502DC2991273
:1009E0003239F5993099FD053080EBE50B640260F2
:1009F00003020AA6C2ACF530E530C39531500B12A4
:100A00003239FF123001053080EED2AC9002E97429
:100A1000FFF07B017A0279E9020A92E50B6401702A
:100A20002D123981C374209F90030AF012322F7562
:100A30004E21C2037F0212100F7E007F207D007BBB
:100A4000017A0279EA1204A412324A023643E50B13
:100A500064027052C2ACF530E530C39531501412C7
:100A6000302974EA2530F582E43402F583EFF0058D
:100A70003080E590030AE531F0D2AC12322F754E8A
:100A8000218015C2AC1230EC8F2FD2AC7B007A00E3
:100A9000792F754D00754E01C2037F0202100FC2FF
:100AA000AC1225A0D2AC228F3A8D3BEF90348093CC
:100AB000F53C85A73DE4F5A7C3E53A94147480940A
:100AC000804003020B9D122DADE0653B7003020BCD
:100AD0009DC207AF3A121778E4F5A7AF3AFEC3EF0D
:100AE000122DBB503DAD3CA8057401088002C333F4
:100AF000D8FCFD42D4ED42F1E53B64027011AD3CFF
:100B0000A80504088002C333D8FC42A4020B94ADAC
:100B10003CA8057401088002C333D8FCF452A40237
:100B20000B94C3EF9410EE648094805033122DC266
:100B30008002C333D8FCFF42D5EF42F2E53B6402AA
:100B40007010AF3CA80704088002C333D8FC42A54C
:100B50008042122DC28002C333D8FCF452A58034E7
:100B600075A720122DC28002C333D8FCFF42CCEF00
:100B700042F3E53B64027010AF3CA8070408800212
:100B8000C333D8FC42A6800C122DC28002C333D8D6
:100B9000FCF452A6853DA7122DADE53BF0228E3622
:100BA0008F37853B3CC20085A73D75A720C2AEE5C7
:100BB000A120E7FB201003123588439A04300F056B
:100BC000300E02C2FA85A23EAF3E7E00D3EF9417EC
:100BD000EE940050047A208029D3EF942FEE9400F5
:100BE00050047A10801CD3EF945FEE940050047A86
:100BF00008800FD3EF94BFEE940050047A04800273
:100C00007A02E53B607AC39A5004AF3B8002AF02A0
:100C10008F3E853E3FC2AFE53E6061E53F602530D7
:100C2000F922E53C601EEB30E1138537828536837F
:100C3000E0F5A30537E537700705368003E4F5A333
:100C4000153C153FE5A120E019EB30E00E8D828CBC
:100C500083E5A3F00DBD00010C800385A340153B87
:100C6000153E200FB2300EAF200009E5A130E3A7FA
:100C7000D20080A3E5A120E39EE4F53BD2AF8082C1
:100C8000300F05300E02D2FA853DA7AF3B227546E4
:100C9000FF788BE6640218466003020D717887E6E0
:100CA00018466003020D717884E6FFC413131354D1
:100CB0000164016003020D71122C3B5003020D719F
:100CC000E4F577F578EF541F14601E1460292402B0
:100CD0006003020D5D7889E618466003020D5D121F
:100CE00039AD505A4377018071C37889E694011871
:100CF000E6940050688063122C46FFAC06547F4C8B
:100D0000700B7882E664047004F54680507882E6C1
:100D100064067049EF24FE60192481602314602E5C
:100D20002481703978A7E664067005757701F57837
:100D3000802878AEE664067005757701F578801A2C
:100D40007899E664067005757701F578800C78A0CF
:100D5000E664067005757701F578E4F546AF46EF71
:100D60003395E04F700BFB7A0079777D02FC1233EC
:100D700044AF46227893E61392037890E6FE08E6A5
:100D8000FFC39440EE940040047F4080008F45856F
:100D90004546788CE6FF547F6401704BEFC4122BFC
:100DA000AD701C08120272C2057D02E4FF1224001D
:100DB0007402122B8E15451545788CE6547FF6E4A7
:100DC000F547E545C313FFE547C39F502F788D12C4
:100DD0000272120E4D7401122B8E7BFF7A347956FB
:100DE000120E4D054780DB788D120272C205AD45AB
:100DF000E4FF122400788FE545122B907893E65497
:100E0000FBF6C37891E69546FF18E69400FEF608D7
:100E1000EFF64E701EE5466440601875AE1175AF72
:100E20000AE5AE20E7FB78927601E4788CF67893B9
:100E3000F6800B75AE1175AF02E5AE20E7FB30030F
:100E40000BE546122B97E4FDFF12339222C2057D7B
:100E500001E4FF1224002285A72C120194FF9000C8
:100E6000011201ADFEE4F5A7EE655E601DEE655E64
:100E7000601853D9F5EE14600C14600E2402700A49
:100E800043D908800543D90280009000021201ADC9
:100E9000F55F9000031201ADF55B9000041201AD07
:100EA000F5609000051201ADF55C9000061201ADF1
:100EB000F5619000071201ADF55DAE5FEE7009AE11
:100EC0005BEE7004F5FBF5FCAE60EE7009AE5CEE17
:100ED0007004F5E9F5EAAE61EE7009AE5DEE7004FE
:100EE000F5EBF5ECE55A6F60488F5AEF14600F147C
:100EF00060151460222403703812315C803343E2A1
:100F0000017D017F07802543E2027D017F071224D6
:100F10006E7D017F08801543E2037D017F07122467
:100F20006E7D017F0812246E7D017F0912246ED22E
:100F3000DE852CA722C0E0C0F0C083C082C0D0757F
:100F4000D000C000C001C002C003C004C005C0067C
:100F5000C0071237FD8F411238088F421238138FA5
:100F60004312381E8F44E54130E34412399212395E
:100F70000C7893122BA4700618E66403600DEF1230
:100F80002BAE700A7892E66402700343420178A89F
:100F9000E6122BA6700918E6640370034343027837
:100FA000AF122BA4700918E664037003434304E5F1
:100FB0004130E203122ACDE54130E103123913E555
:100FC0004130E003123541E54230E2031220ABE547
:100FD0004230E103122226E54330E2031213EAE530
:100FE0004330E10312132CE54230E003121619AF2F
:100FF000441237F2D007D006D005D004D003D00277
:10100000D001D000D0D0D082D083D0F0D0E0328FC9
:10101000498B4A8A4B894C85A750E54924FD500FDE
:101020008000122A637D7B7C0212394B7FFC22E513
:1010300049600A7882E6640660037FF722E5491278
:101040002A74894FE54F2405F8E6FF6401600BEF31
:10105000640570037FFB227FFE2212394492041242
:101060002A4DAB4AAA4BA94CA84F12027BE54F244C
:1010700003F8A64D08A64EE54F2405F87602A20314
:10108000E4335401FFE54F2406F8E654FE4FF6E53D
:101090004914600F146024240270397893E64404E4
:1010A000F68031122A8340047D408004AF4EAD07A4
:1010B0007894120272D2057F018016122A834004AE
:1010C0007D408004AF4EAD07789B120272D2057F3F
:1010D00002122400300403122A5C8550A77F0022EC
:1010E000122DD3EFC394147480948040030211A591
:1010F000ED6401700E74572F122DB1E0640170037E
:101100000211A5122DB9502DA8067401088002C342
:1011100033D8FCFB42D4ED6008EB42F1EB42808017
:1011200004EBF452F1A8067401088002C333D8FC22
:10113000F452A48060122DCA502DA80674010880B4
:1011400002C333D8FCFB42D5ED6008EB42F2EB4220
:10115000908004EBF452F2A8067401088002C333B5
:10116000D8FCF452A5802E75A720A806740108802B
:1011700002C333D8FCFB42CCED6008EB42F3EB42F8
:10118000A08004EBF452F3A8067401088002C33374
:10119000D8FCF452A6ED6401700974572F122DB1DA
:1011A0007401F08CA7227546FF788BE61846600321
:1011B0000212667884E6541F24FE600302126678E9
:1011C00087E618466003021266122C46547FFF4ED3
:1011D000700B122C3B4006E4F546021266C3EF94F6
:1011E00005EE940040030212667882E6640670768B
:1011F000F5467889E6547FFF1237F27889E630E7C2
:101200000B75AE1175AF40E5AE20E7FB7889E6209F
:10121000E71875AE94E5AE20E7FB53AFDFE5AE20EF
:10122000E7FB43AF80E5AE20E7FB7889E624FE606C
:10123000162481601D1460252481702A78A7E66435
:101240000360237601801F78AEE6640360187601A0
:1012500080147899E66402600D7601800978A0E632
:10126000640260027601AF46228B2C8A2D892E12F1
:101270000194FF900320F09000011201AD90032132
:10128000F09000021201AD90030BF09000031201E8
:10129000AD90030DF09000041201AD90031EF0908C
:1012A00000051201AD90030CF0EF6043A312131C74
:1012B00090031E12131C90030CE0FF7D02120AA77C
:1012C000E4F52F12001950537406252FF582E433EC
:1012D000F583AB2CAA2DA92E1201ADFF120003EF4E
:1012E000F0120003E0FF7D02120AA7052F80D490C0
:1012F000030D12132490031E12132490030CE0FF1D
:101300007D011210E0E4F52F120019500E120003B7
:10131000E0FF7D011210E0052F80ED22E0FF7D024D
:10132000120AA722E0FF7D011210E022C2037F0112
:101330001237F2123714501575AE94E5AE20E7FB64
:1013400053AFBFE5AE20E7030213E980F6123799E9
:1013500040030213E912398D8F4578A7E6640360D4
:101360000A08E64402F67546F9805CC378A6E6955D
:101370004518E69400500E78A7760108E64402F678
:101380007546F2804278A2120272AD457F011229A1
:101390008978A8E654FDF6AF457E00C378A6122EE4
:1013A000D178A6E618466006E5456440600678A751
:1013B0007601D203E4F54675AE94E5AE20E7FB5323
:1013C000AFFEE5AE20E7FB78A8E6FF5401640170AC
:1013D00018300304EF54FEF6E545FB7A0078A512B9
:1013E0002EE4AD467F0312339222C2037F021237EE
:1013F000F2123714501575AE94E5AE20E7FB53AFEB
:10140000BFE5AE20E7030214A780F6123799400328
:101410000214A712398D8F4578AEE66403600A087E
:10142000E64402F67546F9805CC378ADE69545184A
:10143000E69400500E78AE760108E64402F6754652
:10144000F2804278A9120272AD457F021229897892
:10145000AFE654FDF6AF457E00C378AD122ED178CD
:10146000ADE618466006E5456440600678AE760154
:10147000D203E4F54675AE94E5AE20E7FB53AFFE2C
:10148000E5AE20E7FB78AFE6FF5401640170183049
:101490000304EF54FEF6E545FB7A0078AC122EE427
:1014A000AD467F04123392222800000000010400A0
:1014B0000100000000000000000157494E55534252
:1014C000000000000000000000000000000000001C
:1014D00092000000000105000100880000000700E4
:1014E00000002A0044006500760069006300650082
:1014F00049006E00740065007200660061006300C0
:10150000650047005500490044007300000050008A
:1015100000007B00350042003300340042003300FD
:10152000380042002D0046003400430044002D00E6
:1015300034003900430033002D00420032004200E5
:1015400042002D00360030004500340037004100D5
:101550003400330045003100320044007D000000BB
:1015600000008D2F8B2C8A2D892E75A720900002CC
:101570001201ADF5A2E4F5A79000031201ADFF65DD
:101580006F600FD200C201122BF690000312349F3D
:10159000F56F90000112349F600E24FE600C24FE53
:1015A00060172403702480198008123494D2071223
:1015B0001778123494C207800E123494C2071216A0
:1015C0000F120194FFD207121778AE31AF32AC344C
:1015D000AD35852F3B7B03120B9EAB2CAA2DA92E7C
:1015E0009000011201AD600E24FD601124FE600D1B
:1015F0002404701A800F123494D207800E1234948F
:10160000D20712160F120194FFC207121778221286
:101610001778AB2CAA2DA92E22E4FF1237F212362E
:10162000ED40051236E0501D75AE11E4F5AFE5AEA4
:1016300020E7FB75AE1175AF80E5AE20E7FB789231
:101640007601E408F612378D50717893E6FF122B7D
:10165000AD7003EF80627892E66401704C788CF68E
:10166000122A8D7F841216CBEF3395E0FEBEFF1752
:10167000BFFD147884E6FFC41354037005122029BB
:10168000803912005E80347884E6FFC4131313544B
:101690000170287892E664036021788BE618466032
:1016A0001A7893E64408F680127892E6640370058F
:1016B000121E9280067893E64402F67892E664025F
:1016C00070081236FA4003120D74228F45E4F54675
:1016D000F5477548FDA807E664C07026E82405F9BB
:1016E000E7640419476003021775F548F546754726
:1016F000281235AA50048E468F477BFF7A1479A8AA
:101700008028A845E664C17030F548E82405F9E76B
:1017100064051947705FF5467547921235AA500463
:101720008E468F477BFF7A1479D085464D85474E8C
:10173000C203E4FF12100F803CA845E664407035F8
:10174000E804F8E66452702DE5452403F9E764A542
:10175000700419E764A5701DE5452405F9E71947EC
:101760007013E5452407F9E719477009F8F6F5A75E
:1017700075EF1280FEAF4822EF1202D417BC00179B
:10178000C10117C60217CB0317D00417D50517DA06
:101790000617DF0717E40817E90917EE0A17F30B16
:1017A00017F80C17FD0D18020E18070F180C10185B
:1017B0001111181612181B130000181FA20792808F
:1017C00022A207928122A207928222A2079283225A
:1017D000A207928622A207928422A207928522A2C1
:1017E00007928722A207929022A207929122A20733
:1017F000929222A207929322A207929422A2079287
:101800009522A207929622A207929722A20792A05F
:1018100022A20792A122A20792A222A20792A322A9
:10182000C0E0C0F0C083C082C0D075D000C000C08E
:1018300001C002C003C004C005C006C00775A700F0
:101840008598587F02123775E55830E02F90034590
:10185000E06026900347E0FEA3E0F5828E83E599E1
:10186000F0900347E475F0011201EC900345E01499
:10187000F0E070081239878003859959E55830E106
:1018800029900346E06020900349E0FEA3E0F58242
:101890008E83E0F599900349E475F0011201EC9014
:1018A0000346E014F080031239A3D007D006D00518
:1018B000D004D003D002D001D000D0D0D082D083C9
:1018C000D0F0D0E0327546FF788BE6184660030210
:1018D00019627884E6541F24FE6003021962122CF8
:1018E00046547FFF4E700A122C3B4005E4F54680BB
:1018F00071C3EF9405EE940050687887E61846703F
:10190000617882E66406705AF5467889E6547FFF6E
:101910001237F27889E630E70B75AE1175AF10E536
:10192000AE20E7FB7889E620E71075AE94E5AE209F
:10193000E7FB43AF20E5AE20E7FB7889E624FE60B5
:1019400011248160131460162481701678A776061E
:10195000801078AE7606800A78997606800478A0A2
:101960007606AF46228F7385A774EF6005122A545E
:10197000400D122A637D6E7C0112394B7FFC2212CE
:1019800039449217122A4DE57324FE601A14602719
:1019900014603F24037054789976067F011219F77A
:1019A000E5AE30E74680F978A076067F021219F797
:1019B000E5AE30E73680F978A776067F011237F278
:1019C00075AE94E5AE20E7FB43AF20E5AE30E71BF4
:1019D00080F978AE76067F021237F275AE94E5AEE6
:1019E00020E7FB43AF20E5AE20E7FB301703122AC8
:1019F0005C8574A77F00221237F275AE1175AF10A7
:101A0000228F7585A776EF6005122A54400D122AA1
:101A1000637D1C7C0212394B7FFC221239449218E0
:101A2000122A4DE57524FE601A14602714603F24C5
:101A3000037054789976017F01121A93E5AE30E76E
:101A40004680F978A076017F02121A93E5AE30E75E
:101A50003680F978A776017F011237F275AE94E5EA
:101A6000AE20E7FB53AFDFE5AE30E71B80F978AE81
:101A700076017F021237F275AE94E5AE20E7FB5394
:101A8000AFDFE5AE20E7FB301803122A5C8576A7AE
:101A90007F00221237F275AE11E4F5AF227F067A8D
:101AA0000079297E007D007B010204A414FFE4FC80
:101AB000FD7BE87AFDF9F8D3020250F0E52525E038
:101AC0002402F582E43400F583227E017F067A0148
:101AD000796B7D007B010204A4E52525E02401F556
:101AE00082E43400F583227B017A01796D90016CE8
:101AF000E0FD227B017A01796C22782E7C017D0148
:101B00007B017A0079007E007F2922E4F579F57A5D
:101B1000D2117B017A0179ABEF22E4F579F57A7B7A
:101B2000017A00792F22057AE57AAE792290002990
:101B3000E0FF90002BE0228F4C8B4D8A4E894F8521
:101B4000A753E54C601624FD601214600F8000124C
:101B50002A637D1A7C0112394B7FFC22E54C600A16
:101B60007882E6640660037FF722E54C122A7489C6
:101B700052E5522405F8E6FF6401600BEF6405703E
:101B8000037FFB227FFE221239449204122A4DABBE
:101B90004DAA4EA94FA85212027BE5522403F8A683
:101BA0005008A651E5522405F87603A203E4335405
:101BB00001FFE5522406F8E654FE4FF654F7F630DE
:101BC0000403122A5C8553A77F00228F32E4F53488
:101BD0001230ECEF7003021C5C7FF01230017D408C
:101BE000EDFF7E00D3940074809480406FEF24FF5B
:101BF000FFEE34FFFEEF7803CEC313CE13D8F9F512
:101C000033123180EF24FF9200123180EF24FF92D3
:101C100001300108300020E4F5348040200018E550
:101C200032D39D500EE5326D600D740C2533F8E60D
:101C300030E004D2008D34A200E433FF12352E745C
:101C40000C2533F8E6C313FFA200E43375F080A43B
:101C50002FFF740C2533F8A6071D8084AF34228B28
:101C6000268A27892885A729122A4D1239B1E4FF2F
:101C7000EFC3943974809480500974802FF8E4F68F
:101C80000F80ED122A6D12028478B0122A6A900039
:101C9000031202A478B3122A6A9000061202A478F2
:101CA000B6122A6A9000091201AD7881F6122A7CD8
:101CB00075A72043B32075A72053B57F75AE017576
:101CC000AF08E5AE20E7FB75AE0B75AF0FE5AE20B4
:101CD000E7FB12002678827603122A5C8529A77515
:101CE000AE0175AF01E5AE20E7FB7F00227546FF30
:101CF0007886E66003021D787884E6541F70797850
:101D00008BE61846707218E61846706C7882E664A6
:101D100004702E122C4DFF4E6009122C306F700192
:101D2000EE70557887E67880F6122C3078876670EA
:101D30000218E67040D203122B467F06122E118045
:101D4000347882E664067030122C4DFF4E600A1221
:101D50002C30B50723E4B5061F7887E67880F6783F
:101D600087E61846700A7F04122E11122FD88005BC
:101D7000C203122B46E4F546AF4622787FE4F6D83C
:101D8000FD7581BA021DC2022C69E493A3F8E493A5
:101D9000A34003F68001F208DFF48029E493A3F85E
:101DA0005407240CC8C333C4540F4420C8834004D0
:101DB000F456800146F6DFE4800B0102040810208F
:101DC00040809028B2E47E019360BCA3FF543F3072
:101DD000E509541FFEE493A360010ECF54C025E033
:101DE00060A840B8E493A3FAE493A3F8E493A3C8EB
:101DF000C582C8CAC583CAF0A3C8C582C8CAC5837C
:101E0000CADFE9DEE780BE8B2E8A2F89308D31D381
:101E1000E531943D74809480507712330DC2AFAF9A
:101E200033AE321238E4E5332401FFE43532FEE507
:101E3000310425E0FD1234BCE5332402FFE43532E1
:101E4000FE7D031234BCE4F534F535C3E535953138
:101E50007480F8653498502EE5332403FFE435325E
:101E6000FEE5352FFFE5343EFEAB2EAA2FA93085C7
:101E700035828534831201ADFD1234BC0535E5355C
:101E800070C9053480C57D01AF33AE321234BCD287
:101E9000AF227893E61392031238298F45C37891C5
:101EA000E69F18E69400500E7892760108E6440208
:101EB000F67546F28055788D120272AD45E4FF1238
:101EC0002989AF457E00788FEF26F618EE36F6C3E7
:101ED0007891E69FFF18E69EFEF608EFF6E4F546D9
:101EE000EF4E701CE5456440601675AE1175AF4845
:101EF000E5AE20E7FB7892760108E654FEF6800B0B
:101F000075AE1175AF40E5AE20E7FB30030CE5453B
:101F1000122B97AD46E4FF12339222E4F525900090
:101F2000007402F0E4F525C3E525941474809480D0
:101F3000504974572525F582E43401F583E024FCEB
:101F4000601724037025AF2512276BE433FF121AA4
:101F5000D9EF121ABBE4F0801DAF25122319AC068D
:101F6000121AD9EC121ABBEFF0800B121AD974FFB7
:101F7000121ABB74FFF00525021F27121AFA120469
:101F800080EF3395E04F60197B017A007900754D41
:101F900000754E29C2037F0112100F121AFA1201A6
:101FA0006E22AE07E4FB1237F2300513A8067E005E
:101FB0007410088005C333CE33CED8F9FF8013AF39
:101FC000067E007420A807088005C333CE33CED820
:101FD000F9FFD3ED9FEC9E5003430380300603438B
:101FE000034030042043032030050343030475AE4F
:101FF0001175AF40E5AE20E7FB75AE128BAFE5AED5
:1020000030E72580F975AE1475AF80E5AE20E7FBAB
:1020100075AE158BAFE5AE20E7FB20050B75AE1254
:10202000E4F5AFE5AE20E7FB22E4F5457885E6125E
:1020300002D4205100205801205F03206605206D46
:1020400006207408207B0920820A20890B000020CA
:1020500090120C8E8F45803B1211A68F4580341252
:1020600018C58F45802D1224D68F4580261208A1D1
:102070008F45801F1228638F458018121CED8F45F5
:102080008011122B0A8F45800A122CA28F458003E3
:102090007545FFE4FF1237F2AF45EF3395E0FEBE22
:1020A000FF06BFFF0312005EAF45227F021237F228
:1020B000123707500D75AE11E4F5AFE5AE30E76BA2
:1020C00080F978A0E664027062789E122EEE944049
:1020D000EE940040047F4080008F45789F122ECE02
:1020E00078A1E6139203789E122EEE9400EE9400EF
:1020F000401FD3EF9440EE940040047D408004786C
:102100009FE6FD789B120272D2057F0212240080A6
:102110000978A1E654FEF618760130030EE54578FD
:102120009E122EE1E4FD7F02123392228F49ED646C
:1021300006707590034BF090034BE0FFC394067458
:102140008094805038EF540170047F0180027F003A
:10215000123963E4F54AF54BAE4AAF4BE4FCFD7B24
:10216000607AEAF9F8D3120250400A054BE54B7049
:10217000E7054A80E390034BE004F080BA7B017AE4
:10218000007929755000755106C2037F03121B3771
:10219000301102D2127B017A01796B7550007551B2
:1021A00040D2037F04121B372212010002FF0000FD
:1021B00040C4107E8A15010102030109022E0001AC
:1021C0000100C0320904000004FFFFFF0007058181
:1021D000024000010705820240000107050102409C
:1021E000000107050202400001040309040116036F
:1021F00054726565686F7070657200011E035472D9
:102200006565686F707065722055534200FF21E963
:10221000FF21EDFFF840FFF800FFF840FF21A9FF84
:1022200021BBFF220D057F011237F2123707500D37
:1022300075AE11E4F5AFE5AE30E76780F97899E661
:102240006402705E122EEC9440EE940040047F40D5
:1022500080008F457898122ECE789AE6139203125A
:102260002EEC9400EE9400401FD3EF9440EE9400C7
:1022700040047D4080047898E6FD7894120272D282
:10228000057F011224008009789AE654FEF618763C
:102290000130030EE5457897122EE1E4FD7F01122F
:1022A0003392228F4BE4F54D85A74EEF6005122A3D
:1022B00054400F122A637D4D7C0012394B754DFC42
:1022C000804B1239449204122A4DE54B122A74892C
:1022D0004CE54C2405F8E664016032E54B24FE60D1
:1022E0000E146012146013240370147F0180027FA7
:1022F00002122D1280097F0180027F02122D46E515
:102300004C2405F87601E54C2406F8E4F630040385
:10231000122A5C854EA7AF4D22ADA7E4F5A7742223
:102320002FF582E43403F583E01202D42366002300
:102330004801235C02235203234D042361052357E4
:1023400006236E070000237475D11C801C75D11CF8
:10235000801F75D19C801275D19C801575D1948099
:102360000875D194800B75D18C75BC01800675D130
:102370008CE4F5BCEF90343093F5BBD2EC30EDFD3E
:10238000C2EDE5BEC313FEE5BD13FF8DA722759711
:10239000A57597FF7F297A007900121AA37E007F26
:1023A000297A01792E121AD2121A9D121ACA7E00A7
:1023B0007FFF7D00121B1F1204A4122FAE1237459F
:1023C00012396912389812393D12385C12315C1298
:1023D000309FE4F52CF52DAF2D7D011210E07457E0
:1023E000252DF5827401352CF583E4F0052DE52DBE
:1023F0007002052CC39414E52C6480948040D8228C
:102400008F518D528B538A548955E5AE20E7FBE5F9
:10241000514420F5AEE5531460132403601A146090
:1024200020147026AD55AF52123458801DAC54ADF7
:1024300055AF521233DB8012AD55AF5212346C805F
:1024400009AC54AD55AF521233C4300520D3E55119
:102450009400748094804015AF511237F275AE919C
:10246000E5AE20E7FB43AF01E5AE20E7FB22122DEE
:10247000D3122DB9501DA8067401088002C333D8A9
:10248000FCFBF4FA52D4ED6005EB42A48045EA521D
:10249000A48040122DCA501DA8067401088002C3F2
:1024A00033D8FCFFF4FB52D5ED6005EF42A5802345
:1024B000EB52A5801E75A720A8067401088002C3F0
:1024C00033D8FCFFF4FB52CCED6005EF42A680034D
:1024D000EB52A68CA7227546FF122C4DFFC39480A9
:1024E000EE94005054788BE61846704D7884E6548C
:1024F0001F70467889E61846703F7882E66403705C
:102500000BEF4E601A7F04122E1180137882E6645E
:1025100004700F7887E6184670057F03122E11E4C9
:10252000F546AF46EF3395E04F700EF5AE7887E68F
:102530004480F5AFE5AE20E7FBAF462285A77C12CD
:1025400036D3505875A72053B3BC122A7C43B5012B
:102550001238FC921575A71053C1CF1239045017C9
:10256000D21475A72043C602E4FFEFC3940374801E
:10257000948050050F80F3C2141232F01236D3400B
:10258000F830140675A72053C6FD30150675A71040
:1025900043C130122A7C75A72043B340857CA72213
:1025A000750A417E007F087D007B007A00790C125D
:1025B00004A4E50A6032FF121BCB8F0AE49002EA02
:1025C000F078EB7C027D01FB7A00790CFE7F08122B
:1025D000016E7F0212305140F912322F754E09C23E
:1025E000037F0212100F80CA9002EA74FFF07F028C
:1025F00012305140F912322F754E09C2037F020288
:10260000100F90002AE024FE60221460281460134A
:1026100014602E24047034900029E0FF7D01121014
:10262000E08028121B2DFD122EA0801F900029E0B3
:10263000FF7D028007900029E0FF7D03120AA7803A
:102640000A121B2D24FF9207121778121A9D7B0184
:102650007A007929755000755106C2037F03021B69
:10266000378B328A3389348D35E4F536E536C395B8
:1026700035504790030BE0940874809480AB32AAE5
:1026800033A934402275F002E536A4F58285F08343
:102690001201ADFE75F002E53690000112026612DD
:1026A00001ADFDEDFF800C8536827583001201AD12
:1026B000FF7E00123137053680B222E4F531F53263
:1026C000F530E530123886500FAF30122319EF6223
:1026D00032EE6231053080EA53323F753100D3E586
:1026E00032943DE5319400400675310075323DC3AA
:1026F000E532940AE53194005006E5322430FF2299
:10270000C3E5329424E5319400E53250042437FFC8
:1027100022243DFF22E4F5A7120194F50B14600A70
:102720001460382402704302393D1239369000019A
:102730001201ADF58D9000021201AD6005538EF7C8
:102740008003438E089000031201AD600553A4EF8F
:10275000800343A41012324A023643758D30438EF3
:102760000853A4EF12393612397522EF9034809352
:10277000FE122DB95015A8067E007401088005C30D
:1027800033CE33CED8F9FFAD80802F122DCA50152D
:10279000A8067E007401088005C333CE33CED8F975
:1027A000FFAD908015AF067E007401A80708800574
:1027B000C333CE33CED8F9FFADA0EF5D24FF223076
:1027C0000C50E51E7018755701E557C3951D50183C
:1027D000E55712335ED207121778055780EBE51ED6
:1027E00012335EC20712177875A710E51E75F00345
:1027F000A424AEF582E43402F583E0FEA3E08EA5C6
:10280000F5A4051EE51EB51D09200B0312341BE4BB
:10281000F51E228B2C8A2D892E12019424FE60280D
:102820002402703EAB2C900002120012FF1231A461
:10283000AB2C12000FFDD39400748094804023E9E8
:102840002403F9E43AFA8017AB2CE52E2402F9E4CC
:10285000352DFAC002C00112000FFDD001D00212C6
:102860002661227FFF7889E61846704518E61846EB
:10287000703F788BE66401184670367884E6FEC4B3
:10288000131313540164017028EE541F70237882CF
:10289000E6640470087BFF7A347956800C7882E60F
:1028A0006406700DFB7A0079807D01FC123344E4EC
:1028B000FF22017100017200C11602B9FFFF015F22
:1028C00000015B00016000015C00016100015D002E
:1028D000015A00015E00C10BC10CC10DC10EC10F38
:1028E000C110016F0002790000C113C112C1114172
:1028F00003460041034500010900010800008D2C3A
:10290000AF2CD3EF941474809480503975A710EFD6
:10291000700CF5A5F5A4C20C5398FBF51F22D20B41
:10292000E52C78717C0212336E12016E852C1F200B
:102930000C1112341BE4F51E439804D20C74FFF5FD
:10294000A5F5A4C20B2285A7251239B412391A1293
:102950003921123866123997123928123406123387
:10296000AB1235DA1236511238701237C612387A75
:1029700012365E12366B12399B12367812399F125C
:1029800035CA1238C98525A7228F478D488B498AB9
:102990004A894BD3E548940074809480402CE5AE7E
:1029A00020E7FBE54744E0F5AEE54914600E24035B
:1029B000601224FE7014122EF502003EAC4A122E54
:1029C000F5023251122EF51232B222C0E0C0F0C030
:1029D00083C082C0D075D000C000C001C002C00357
:1029E000C004C005C006C00775A71053983F122742
:1029F000BFD007D006D005D004D003D002D001D07C
:102A000000D0D0D082D083D0F0D0E032E4F52EF5E3
:102A10002FF52E123884500BE4FDAF2E122EA00598
:102A20002E80F0E4F52E123884500E1226BB74620C
:102A3000252EF8A607052E80EDE4F52E12388450D9
:102A40000B7D01AF2E1210E0052E80F02275A7102D
:102A500053CEFE22C39405748094802275A7104340
:102A6000CE01227BFF7A3279932212027BAB26AA17
:102A700027A9282275F007A4248DF92275A72053D1
:102A8000B5F822D3E54E9440E54D94002275458477
:102A9000A9457A007B007D08E4FF12298975AE11F3
:102AA00075AF40E5AE20E7FBE5452402122B8124FB
:102AB00002122BB5E5452404122B812404122BB5F8
:102AC000E5452406122B812406122BB52278927636
:102AD000017899760678A0760678A7760678AE769D
:102AE0000675AE0F75AF8FE5AE20E7FB75AE0175CD
:102AF000AF01E5AE20E7FB75AE0B75AF0FE5AE207D
:102B0000E7FB7F03122E110239B0122C467DFFC362
:102B10009401EE9400502C788BE6640118467023E3
:102B20007887E61846701C7884E664817015788290
:102B3000E66406700E7BFF7A3479567D01FC123311
:102B400044E4FDAF05223003107899760178A07631
:102B50000178A7760178AE7601122C5E7F01121FF4
:102B6000A2122C5E7F02122B737F01122B737F0245
:102B7000021FA2121FA2C204D205C2067D407C0021
:102B800022F8E6FC08E6FAECFFEAFEE54522788F3B
:102B900026F618E436F622FB7A007890E6F54C0823
:102BA000E6F54D22E6FFC31354016401221313130B
:102BB0005401640122F8A60608A607228E398F3A2E
:102BC000E4F53B90030BE0FFE53BC39F5027740EF9
:102BD000253B120007E0FFC007AE39E53AA83B08E5
:102BE0008005CEC313CE13D8F9139207D00712175E
:102BF00078053B80CE22AEA775A720A200920FA237
:102C000001920ED210C2F83000047D4080027D0097
:102C1000ED4FF5A130010DD2FA300003D38001C38E
:102C200092FB8004C2FAC2FB53F80FD2F88EA7229F
:102C300078B31202729000050201AD7882E6C39467
:102C40000474809480227888E6FE08E6227886E67E
:102C5000FE08E6221202728B478A48894922D20472
:102C6000D205C2067D407C002212294612238E30F6
:102C7000160BC21674FF78B9F608F6800E78BAE61D
:102C80001846600708E6161870011678BAE6184666
:102C90007008120076EF640660037597A51232D1B2
:102CA00080CD7FFF7889E6FE7887E6FDEEC394014C
:102CB0007480948050237882E66406701C788BE6DA
:102CC00018467015AE05EE70107884E6541F640146
:102CD0007007C203122B46E4FF22AEA7E4F5A790CB
:102CE000033EEFF0900338ECF0A3EDF0900336EAEA
:102CF000F0A3EBF0900340E53AF090033FE53BF0A2
:102D000090034374FFF0300804D2098002D2C58ECC
:102D1000A7221237F275AE1175AF08E5AE20E7FBBA
:102D200075AE91E5AE20E7FBE5AF20E3F375AE119C
:102D300075AF08E5AE20E7FB75AE91E5AE20E7FB89
:102D4000E5AF20E3F3221237F275AE1475AF10E54C
:102D5000AE20E7FB75AE94E5AE20E7FBE5AF20E4DF
:102D6000F375AE1475AF10E5AE20E7FB75AE94E5D4
:102D7000AE20E7FBE5AF20E4F3227D027F01120ADB
:102D8000A77D027F0A120AA7E4F514751580F516CF
:102D900075170A74FFF518F519751A01751B8075FA
:102DA0001C007B007A0079147D030228FE745725ED
:102DB0003AF582E43401F58322EFC39408748094D9
:102DC0008022AF3CA80774010822EFC394107480DE
:102DD000948022EF90348093FEACA7E4F5A722D331
:102DE000EF9400EE940240047E027F00C3EF940251
:102DF000EE940050047E007F025307FEEEC313EFF3
:102E000013FF1FADA775A720C2F88FA2D2F88DA718
:102E1000228F477882E6F548122A544009EF122A99
:102E2000555003122FD8E547640570047883A648EF
:102E30007882A647E54865476007AD47AF4812214D
:102E40002C22757DFFC21BEF25E0FFAC02AD01E532
:102E5000322401F9E43531FAAB0185333A85343B4C
:102E6000122CDA301BFDAB30AA31A932E57D02010C
:102E7000DA90031FE064016026E4F57E90030BE026
:102E8000FFE57EC39F5012740E257E120007E0FFFF
:102E90007D011210E0057E80E390031F7401F02293
:102EA0008F3085A731E4F5A774222530F582E4340C
:102EB00003F583EDF0123721E064046010E4FDAF08
:102EC000301210E08531A71237217404F0227E0001
:102ED000C3E69FF618E69EF618EF26F618EE36F6CD
:102EE00022FB7A00E6F54C08E6F54D227897E6FEDF
:102EF00008E6FFD322AD4BAB47AF4822157FA87F32
:102F0000A605157FA87FA607157FA87F12312DE69D
:102F1000A87F086005E642C08004E6F452C0A87F9E
:102F2000E6F5A7057F057F057F22AEA775A720AC34
:102F30009A5304CCED5403FDEF5403C454F04D42B6
:102F400004E5A120E60DEB6007430402F5A280032F
:102F50005304FD8C9A8EA72290031FE06025E4F5B0
:102F60003990030BE0FFE539C39F5012740E2539E9
:102F7000120007E0FF7D02120AA7053980E3E49002
:102F8000031FF02275A70030D808855FFB855BFC26
:102F9000C2D830D9088560E9855CEAC2D930DA0840
:102FA0008561EB855DECC2DAC2DF53F7DF3290F862
:102FB00000E493F4700E122A0C7B007A0079627D93
:102FC000081238D290F840E493F4700B7BFF7A3704
:102FD00079DC7D0A1238DB2285A74A123944920334
:102FE000122A4D754901C3E549122A555009AF49C6
:102FF0001222A3054980EF300303122A5C854AA7F9
:10300000228F35E4F536C3E53694087480948050F9
:1030100017AF36A807E535088002C313D8FC540162
:10302000FF12352E053680DE22E4F533F532C3E596
:10303000329408748094805015123180AE32A80604
:10304000EF088002C333D8FC4233053280E0AF334F
:10305000228F32C3EF122A55400C122A637D9E7CC8
:103060000012394BD322E532122A74E92405F8E61E
:1030700064017002C322D322157FA87FA607157FA3
:10308000157FA87F0812312DE5C056A87FF6A87FCE
:1030900008E6F5A7A87FE6FF057F057F057F22E408
:1030A000F51DF51FF51EFE7F3CFD7B017A0279AD13
:1030B0001204A47E007F3C7D007B017A02797112AC
:1030C00004A45398FB22AB07AA06ACA7E4F5A7EB30
:1030D0002401FEE43A900349F0A3CEF0ED149003EE
:1030E00046F08B828A83E0F5998CA722E4F5A775D8
:1030F0008D30538EF7C299D29C7599F03099FD307E
:1031000098FDAF99438E08EF64F060037F01227F42
:10311000002290033CE475F00112020285F082F572
:103120008322AEA7E4F5A753C1BF8FD722A6A7E499
:10313000F5A7A87F0808228E378F38122F589003E2
:103140000DE0FFD20712177890031EE0FFC20712AE
:103150001778AF38AE37122BBC0231C785A72EE4E3
:10316000F5A7C2DE7D017F071210E07D017F081206
:1031700010E07D017F091210E053E2FC852EA722AA
:10318000C299AF99D29C7599FF3099FD3098FDAFE7
:1031900099EFF470047E0180027E00EE60037F01EF
:1031A000227F00228F32122F5890030DE0FFC207BA
:1031B00012177890031EE0FFC207121778AF327E15
:1031C00000122BBC0231C71231DF90030CE0FFD29A
:1031D000071217781231DF900321E0FF0237D190F8
:1031E000030CE0FFC20712177822AD07ED4480F50B
:1031F000AEE5AE20E7FBAFAFEF7F00FEED144480FD
:10320000F5AEE5AE20E7FBADAFED420722E4FFC22D
:103210001DAEA775A720EFC3940374809480500A55
:10322000E5A130E702D21D0F80EC8EA7A21D227B04
:10323000017A0279EA754D0022853082758300A3F8
:10324000A3AB2CAA2DA92E0201AD7E027FEA7D2020
:10325000228D828C831FEF600BE5AE20E7FBE5AF8C
:10326000F0A380F1E5AE20E7FBEB4420F5AEE5AF3F
:10327000F0221201946018E4F5A79000011201AD4C
:10328000F58C1235531238C0D200E4FF02007E12D2
:10329000385C222E5C6C69625C65666D385F7573A4
:1032A000625C7372635C65666D385F757362642E11
:1032B0006300A8051FEF600BE5AE20E7FBE5AFF26A
:1032C0000880F1E5AE20E7FBEB4420F5AEE5AFF278
:1032D000227F0312305140031226027F0412305124
:1032E00040031204EE7F011230514003121F1B22D3
:1032F000E5A9547FFF75A930E4F5A7439A408FA94B
:10330000E5A9547F6F6005E4F5A98FA922AFA7E472
:10331000F5A775FF80FEEEC394C8748094805003B7
:103320000E80F375EF028FA72212312275D6FF901F
:10333000033AECF0A3EDF0900344EBF0E49003418A
:10334000F08EA7227892E664017012788D12027BCB
:103350007890A60408A605087602E408F62275F01F
:1033600003A424ADF582E43402F583E0FF2275F076
:1033700003A4FFAEF07D0122ADA7E4F5A7E59854C4
:103380000475F040A4FFAEF0AC99ECFBEF4BFF8D61
:10339000A7228D49EF6404700EC3EB9440EA9400B9
:1033A00050028001C39213E4FEFF22AF885388AF1E
:1033B000758CF3758D30758B34EF5440FEEF5410DF
:1033C0004E4288228D828C83AE071FEE600CE5AEE4
:1033D00020E7FBE493F5AFA380EE228D828C83AED1
:1033E000071FEE600BE5AE20E7FBE0F5AFA380EF33
:1033F000228F56E55624FE600424027003123577AE
:10340000D21B85567D22E4F5A7F5A9E5A954806075
:10341000FA75A903E5A9548060FA22851F1DE51FEE
:1034200078AD7C0212336E7B017A02797102016EF3
:10343000000102030604050708090A0B0C0D0E0F14
:103440001415161712034D005300460054003100A6
:1034500030003000EE000000A805AE071FEE600B44
:10346000E5AE20E7FBE6F5AF0880EF22A805AE0742
:103470001FEE600BE5AE20E7FBE2F5AF0880EF2220
:103480000001020306040507000102030405060704
:1034900000010203AB2CAA2DA92E120194FF22AB2E
:1034A0002CAA2DA92E0201AD756A01756B98756C59
:1034B00001E4F56DFB7A00796A0227158F828E830D
:1034C00075B7A575B7F1438F01EDF0538FFC22C29C
:1034D0001CAEA775A72030F9048FA3D21C8EA7A21B
:1034E0001C22C222AFA775A720E59B30E702D2229B
:1034F0008FA7A22222C223AFA775A720E59B30E3A6
:1035000002D2238FA7A22322EF600CD200C201AF08
:103510006F122BF602388E12389822AB07AA06AD2E
:10352000A7E4F5A7EA24FF929B8B998DA722C29C62
:10353000C299EF60057599FF8003E4F5993099FD14
:10354000227882E6C394027480948040057F05123D
:103550002E1122AFA7E4F5A7F5C1F5ACF5C0F5D75C
:10356000F5D68FA722E4900340F090033FF090033C
:1035700042F0C208C20922AFA7E4F5A753C17F43B6
:10358000C18053C0C78FA722E5A1A2E6920FE5F83C
:10359000540C24FF920ED21022AFA775A720E5A1EC
:1035A00020E0FBAEA38FA7AF0622E82406F8E6FED4
:1035B00008E6FFC39547EE954622E5C8540453C874
:1035C000FB43C81043C80442C82275E69175A71092
:1035D00075CE10E4F5A775A89022E5915404539197
:1035E000FB75943C439104429122AFA775A720E557
:1035F000F75470C4540F8FA7FF22AEA7E4F5A7536A
:10360000984FEB4F4DF5988EA722AFA775A720A234
:10361000F9B3921E8FA7A21E22AFA7E4F5A7A2C0FE
:1036200092198FA7A2192290033CEEF0A3EFF0901D
:103630000342EDF022AEA775A720EFF4440F52F835
:103640008EA722900347EEF0A3EFF0900345EDF034
:103650002275A710E59854045398FB42982253F71B
:103660007F75DBCA75E95A75EA5A2253F77F75DC14
:10367000CA75EB1475EC142275A20143A14053F8EE
:10368000F343F80122AFA775A720E5F854F08FA700
:10369000FF22AEA775A72030F9FD8FA38EA722AF1A
:1036A000A775A72053F80EC2AE8FA722AFA775A7A4
:1036B00020E5F754078FA7FF22AFA7E4F5A7E59809
:1036C00054038FA7FF22C2ACE4F5A7C2998F9930AB
:1036D00099FD2275AE81E5AE20E7FBE5AFA2E122C0
:1036E00075AE91E5AE20E7FBE5AFA2E42275AE91A1
:1036F000E5AE20E7FBE5AFA2E22275AE91E5AE2094
:10370000E7FBE5AFA2E12275AE91E5AE20E7FBE570
:10371000AFA2E52275AE94E5AE20E7FBE5AFA2E6E9
:103720002274572530F582E43401F58322AFA7E4F3
:10373000F5A7AEC28FA7AF0622AFA7E4F5A7A21ADE
:1037400092C18FA72275A72043F402439C02C2B105
:1037500022AFA775A720AEA38FA7AF06221238EC21
:10376000A2E3921F8FA7A21F221238ECA2E192209F
:103770008FA7A22022AEA7E4F5A7EFF452988EA758
:1037800022AFA7E4F5A7AE998FA7AF062275AE9139
:10379000E5AE20E7FBE5AF132275AE94E5AE20E77A
:1037A000FBE5AF1322AFA775A72053B37F8FA722E6
:1037B000122A4D1237A5E4FF022E11123122ED44D8
:1037C00001F5D68EA722C2DE75D909759607D2DE1D
:1037D00022E4FEEEC39F50030E80F822547265650A
:1037E000686F70706572001238EC1392218FA7A277
:1037F000212275AE0E8FAFE5AE20E7FB2275AE86B7
:10380000E5AE20E7FBAFAF2275AE82E5AE20E7FB69
:10381000AFAF2275AE84E5AE20E7FBAFAF2275AE49
:103820008EE5AE20E7FBAFAF2275AE96E5AE20E7A2
:10383000FBAFAF22AFA7E4F5A7C2C08FA722AEA708
:10384000E4F5A78FC28EA722AFA7E4F5A7D2C58F54
:10385000A722AFA7E4F5A7D2C48FA72212357743DA
:10386000D44853E1FB2275BC3075B38243E8C022D3
:10387000E4F5A77589224388502253F77F75DACA89
:10388000E4F5FC22E52EC39408748094802243A4BE
:103890000753D4F843E1022243D40753A4F853E179
:1038A000FD22AFA7E4F5A7D2998FA722AEA7E4F532
:1038B000A78F998EA722AFA7E4F5A7F5988FA72227
:1038C00053D4B743E1040235777BFF7A22791C0297
:1038D0001C5F7532F8753300021E077532F87533B8
:1038E00040021E07438F02E4FD0234BCAFA775A758
:1038F00020E5A122E4FBFD7F100235FA75A710E553
:10390000C1A2E52275A720E5C633B3228E458F46B6
:10391000D216227883E6FF022E1175A720759C022D
:1039200022E4F5A775E3402275A71075C130227512
:10393000A70053913F3253D4CF43E1012243D43007
:1039400053E1FE2275A710E5CE13228C548D5580CD
:10395000FE900340E0FF2290033FE0FF22900341EE
:10396000E0FF22EF24FF92B122E4F55AF55E22E453
:10397000900346F022E4900345F022900346E0FFD6
:1039800022900345E0FF2212324A0236437F17029B
:1039900031EA7F0D0231EA75D10C2243C1DC2243AA
:1039A000981022E4F509228F7B22D21B22D32222F7
:0639B00022222222222245
:00000001FF
