:10000000021D7F740E252FF582E43403F5832290C0
:100010000001AA2DA92E0201AD90030BE0FFE52FF0
:10002000C39F22021824AFA77892760175A72043B8
:10003000B38075A72043B3408FA72202070FA805FE
:100040001FEF600AE5AE20E7FBA6AF0880F2E5AE41
:1000500020E7FBEB4420F5AEA6AF22022FE3E4FF3E
:100060001238277892760575AE1175AF20E5AE206F
:10007000E7FB220239647882E6FF22020F39AEA73D
:10008000E4F5A753C1F4A2003333333354F8FDEF42
:1000900044C44D42C143D6018EA7220229CFE709AD
:1000A000F608DFFA8046E709F208DFFA803E888228
:1000B0008C83E709F0A3DFFA8032E309F608DFFA60
:1000C0008078E309F208DFFA807088828C83E30984
:1000D000F0A3DFFA806489828A83E0A3F608DFFA5E
:1000E000805889828A83E0A3F208DFFA804C80D2AC
:1000F00080FA80C680D4806980F28033801080A628
:1001000080EA809A80A880DA80E280CA803389827F
:100110008A83ECFAE493A3C8C582C8CCC583CCF02B
:10012000A3C8C582C8CCC583CCDFE9DEE7800D89D2
:10013000828A83E493A3F608DFF9ECFAA9F0EDFBD9
:100140002289828A83ECFAE0A3C8C582C8CCC58321
:10015000CCF0A3C8C582C8CCC583CCDFEADEE8807A
:10016000DB89828A83E493A3F208DFF980CC88F0EC
:10017000EF60010E4E60C388F0ED2402B40400501D
:10018000B9F582EB2402B4040050AF232345822347
:100190009000EE73BB010689828A83E0225002E759
:1001A00022BBFE02E32289828A83E49322BB010CF4
:1001B000E58229F582E5833AF583E0225006E925B8
:1001C00082F8E622BBFE06E92582F8E222E58229D2
:1001D000F582E5833AF583E49322BB010689828A9E
:1001E00083F0225002F722BBFE01F322C5F0F8A3F0
:1001F000E028F0C5F0F8E582158270021583E0383A
:10020000F022A3F8E0C5F025F0F0E5821582700237
:100210001583E0C838F0E822BB0110E58229F58299
:10022000E5833AF583E0F5F0A3E0225009E9258261
:10023000F886F008E622BBFE0AE92582F8E2F5F02E
:1002400008E222E5832AF583E993F5F0A3E99322F6
:10025000EB9FF5F0EA9E42F0E99D42F0EC6480C825
:1002600064809845F022A42582F582E5F03583F577
:100270008322E6FB08E6FA08E6F922EBF608EAF63E
:1002800008E9F622BB010789828A830204D050055F
:10029000E9F8020272BBFE05E9F80204D989828AF4
:1002A000830204E2BB010DE58229F582E5833AF57C
:1002B000830204D05007E92582F8020272BBFE07D0
:1002C000E92582F80204D9E58229F582E5833AF529
:1002D000830204E2D083D082F8E493701274019315
:1002E000700DA3A393F8740193F5828883E473746B
:1002F00002936860EFA3A3A380DFE3F5F009E208AF
:10030000B5F06BDFF58067E3F5F009E608B5F05E60
:10031000DFF5805A87F009E608B5F052DFF6804E27
:1003200087F009E208B5F046DFF6804288828C83C8
:1003300087F009E0A3B5F036DFF6803288828C833F
:1003400087F009E493A3B5F025DFF5802188828C3E
:1003500083E3F5F009E0A3B5F014DFF5801088829F
:100360008C83E3F5F009E493A3B5F002DFF4020413
:1003700029808780E9809080D4803E8015806E80BF
:100380007E809D80B7808D80A380518074803C02E8
:10039000043589828A83ECFAE493F5F0A3C8C58218
:1003A000C8CCC583CCE493A3C8C582C8CCC583CCD4
:1003B000B5F076DFE3DEE1807089828A83E493F52D
:1003C000F0A3E208B5F062DFF4805E89828A83E000
:1003D000F5F0A3E608B5F051DFF5804D89828A83F8
:1003E000E0F5F0A3E208B5F040DFF5803C89828AB1
:1003F00083E493F5F0A3E608B5F02EDFF4802A80BD
:1004000002805789828A83ECFAE493F5F0A3C8C589
:1004100082C8CCC583CCE0A3C8C582C8CCC583CC78
:10042000B5F006DFE4DEE280007FFFB5F0020F22C8
:1004300040027F012289828A83ECFAE0F5F0A3C8AA
:10044000C582C8CCC583CCE0A3C8C582C8CCC5834F
:10045000CCB5F0D5DFE5DEE380CF89828A83ECFA84
:10046000E0F5F0A3C8C582C8CCC583CCE493A3C88B
:10047000C582C8CCC583CCB5F0AFDFE4DEE280A98D
:1004800088F0EF60010E4E60ABED2402B404005022
:1004900098F582EB2402B40400508E232345822376
:1004A00090037173EF4E6012EF60010EEDBB010B14
:1004B00089828A83F0A3DFFCDEFA2289F05007F7F5
:1004C00009DFFCA9F022BBFEFCF309DFFCA9F02246
:1004D000E0FBA3E0FAA3E0F922E2FB08E2FA08E27B
:1004E000F922E493FB740193FA740293F922301217
:1004F0000B2013030206E8C2120206E890016BE02B
:100500001202D4053701053D02069E0305FF0405CE
:100510005105060806055C0706A60806BE0906AED4
:100520000A06B60B06C60C06CB0D05460E06DA0FFC
:1005300006E210000006E81223920206E8121AF7FB
:10054000120E5B0206E890016CE0FF123998020679
:10055000E890016CE0FF12353D0206E890016CE086
:10056000F528A3E0F529A3E0F52AA3E0F52BA3E005
:10057000F527A3E0F525E52764026038AF257E0066
:10058000D3EF943974809480402A121B0F24C71231
:100590000700121B2A70020579121AB040077F0467
:1005A00012308640ED2012077F041230865003027D
:1005B0000645C2117530017531017532727533010E
:1005C00075340075352F7B007A007928AD2512151A
:1005D00066E527640170030206E8121B1EF54D85CF
:1005E000254EC2037F02121013121B2A70020579D6
:1005F000121AB040077F0212308640ED02069712B1
:100600001AF71232A70206E890016DE0F525A3E083
:10061000F526AF257E00D3EF943C74809480403360
:10062000121B0F24C4120700121B2A700205791234
:100630001AB040077F0412308640ED2012077F0475
:10064000123086500C7F041222A7D212C211020669
:10065000E8C21190016CE0FF753001753100753210
:100660002F8525338526347B017A01796F122E463A
:10067000121B1EE5262401F54EE433F54DC2037F1F
:1006800002121013121B2A70020579121AB04007C9
:100690007F0212308640ED7F021222A7804A121A92
:1006A000F71227198042121AF71209A9803A121A72
:1006B000EB1239078032121AEB123910802A121A03
:1006C000EB12290280221237E580071237E5780005
:1006D00076A5E4F5A775EF12800E121AF712126DC7
:1006E0008006121AF7122817121ACEC2137B017A4B
:1006F00001796B755000755140D2037F04021B3B9A
:10070000F551EE34FFF550C2037F04121B3B22C0AB
:10071000E0C0F0C083C082C0D075D000C000C0016E
:10072000C002C003C004C005C006C00775A70020F2
:10073000C70D7F021234261235ACC2C002088AE50A
:10074000C054F01202D4083D00086B1007FB2007CC
:10075000DF4007BA80077AC0075FE0000008839097
:100760000340E090033E700AE04401F5C2D20A0261
:100770000837E0F5C2C20A02083730C136300A1025
:1007800090033FE014F06003020888C2C1020888A9
:10079000900340E0601290033812314AE0F5C290B5
:1007A0000340E014F002088890033FE06029D2C5BE
:1007B0000208887F01123426802090033612314AC5
:1007C000E5C2F090033FE0600C14F060030208887B
:1007D000C2C1020888C2C11239DFD2C4020879201E
:1007E000C103020888900342E014F0600912314707
:1007F000E0F5C20208887F0302088530C213900327
:1008000043E0FF14F0EF6004D2098005E4FF1234E6
:1008100026E5C213B3920AA20AA00850059003412C
:10082000E4F0200A12900341E0700320080312391B
:10083000E8123147E0F5C2C2C5D208804B900341AF
:10084000E0FF04F090033AE0FCA3E02FF582E43CE3
:10085000F583E5C2F0900344E0FF900341E06F7040
:10086000271239E8900341E4F0801D300A09900313
:1008700041E060031239E8C2C4A20992C5C209C2AC
:100880000880057F02123426C2C0D007D006D005EA
:10089000D004D003D002D001D000D0D0D082D083F9
:1008A000D0F0D0E032E4FDFC754AFF7884E6648045
:1008B00060030209A6122C51F546EEFFE460030224
:1008C0000984EF24FE601F146039240260030209CA
:1008D00084E546600302098478B0122C5812019412
:1008E0007C00FD020984E546600302098478B312A6
:1008F0002C58900002120218FAE5F0FFEAFCEFFD16
:1009000002098478B612027275F003E546A4F582F6
:1009100085F0831202A4122C5BAF467E00EF700BB1
:10092000FC7D04788CE65480F68059EF64EE4E70BE
:100930000E7547FF754834754979FC7D1280451264
:100940002C4AFF4E600AEF64097003EE64047034B1
:10095000E546C3788196502CAB47AA48A949900038
:10096000011201AD7C00FD120194547FFF788CE6EA
:1009700054804FFFF674012549F549E43548F548A0
:10098000EF4480F6ED4C601E788AE6FE08E6FFD361
:10099000ED9FEC9E4004AC06AD07AB47AA48A949C1
:1009A000123379E4F54AAF4A228B2C8A2D892E9096
:1009B00000011201ADF5311201941460621470034C
:1009C000020A87147003020AA324036003020AAA1E
:1009D000E50B64017019C2ACF530E530C3953150B8
:1009E0002DC29912326EF5993099FD053080EBE5F4
:1009F0000B64026003020AAAC2ACF530E530C3956D
:100A000031500B12326EFF123036053080EED2AC10
:100A10009002E974FFF07B017A0279E9020A96E517
:100A20000B6401702D1239B6C374209F90030AF035
:100A3000123264754E21C2037F021210137E007FB2
:100A4000207D007B017A0279EA1204A412327F022F
:100A50003678E50B64027052C2ACF530E530C395D0
:100A600031501412305E74EA2530F582E43402F518
:100A700083EFF0053080E590030AE531F0D2AC1247
:100A80003264754E218015C2AC1231218F2FD2AC49
:100A90007B007A00792F754D00754E01C2037F02ED
:100AA000021013C2AC1225A4D2AC228F3A8D3BEFB8
:100AB0009034B593F53C85A73DE4F5A7C3E53A949A
:100AC00014748094804003020BA1122DB1E0653BA9
:100AD0007003020BA1C207AF3A12177CE4F5A7AF6F
:100AE0003AFEC3EF122DBF503DAD3CA8057401087E
:100AF0008002C333D8FCFD42D4ED42F1E53B6402F1
:100B00007011AD3CA80504088002C333D8FC42A490
:100B1000020B98AD3CA8057401088002C333D8FCD1
:100B2000F452A4020B98C3EF9410EE6480948050AA
:100B300033122DC68002C333D8FCFF42D5EF42F2F8
:100B4000E53B64027010AF3CA80704088002C33381
:100B5000D8FC42A58042122DC68002C333D8FCF4D3
:100B600052A5803475A720122DC68002C333D8FC4D
:100B7000FF42CCEF42F3E53B64027010AF3CA807A4
:100B800004088002C333D8FC42A6800C122DC68014
:100B900002C333D8FCF452A6853DA7122DB1E53B24
:100BA000F0228E368F37853B3CC20085A73D75A766
:100BB00020C2AEE5A120E7FB2010031235BD439A09
:100BC00004300F05300E02C2FA85A23EAF3E7E0011
:100BD000D3EF9417EE940050047A208029D3EF9439
:100BE0002FEE940050047A10801CD3EF945FEE94A3
:100BF0000050047A08800FD3EF94BFEE94005004A5
:100C00007A0480027A02E53B607AC39A5004AF3BD3
:100C10008002AF028F3E853E3FC2AFE53E6061E598
:100C20003F602530F922E53C601EEB30E11385374B
:100C300082853683E0F5A30537E5377007053680F2
:100C400003E4F5A3153C153FE5A120E019EB30E0E6
:100C50000E8D828C83E5A3F00DBD00010C80038511
:100C6000A340153B153E200FB2300EAF200009E522
:100C7000A130E3A7D20080A3E5A120E39EE4F53BE9
:100C8000D2AF8082300F05300E02D2FA853DA7AF79
:100C90003B227546FF788BE6640218466003020D1E
:100CA000757887E618466003020D757884E6FFC400
:100CB000131313540164016003020D75122C3F508D
:100CC00003020D75E4F577F578EF541F14601E14D8
:100CD000602924026003020D617889E618466003EA
:100CE000020D611239E2505A4377018071C378894D
:100CF000E6940118E6940050688063122C4AFFAC19
:100D000006547F4C700B7882E664047004F54680CC
:100D1000507882E664067049EF24FE6019248160F1
:100D20002314602E2481703978A7E6640670057557
:100D30007701F578802878AEE6640670057577014E
:100D4000F578801A7899E664067005757701F5786C
:100D5000800C78A0E664067005757701F578E4F5F7
:100D600046AF46EF3395E04F700BFB7A0079777D05
:100D700002FC123379AF46227893E61392037890FF
:100D8000E6FE08E6FFC39440EE940040047F4080F6
:100D9000008F45854546788CE6FF547F6401704B93
:100DA000EFC4122BB1701C08120272C2057D02E45E
:100DB000FF1224047402122B9215451545788CE617
:100DC000547FF6E4F547E545C313FFE547C39F505D
:100DD0002F788D120272120E517401122B927BFF2A
:100DE0007A34798B120E51054780DB788D120272AE
:100DF000C205AD45E4FF122404788FE545122B941B
:100E00007893E654FBF6C37891E69546FF18E6948E
:100E100000FEF608EFF64E701EE546644060187559
:100E2000AE1175AF0AE5AE20E7FB78927601E47863
:100E30008CF67893F6800B75AE1175AF02E5AE2097
:100E4000E7FB30030BE546122B9BE4FDFF1233C793
:100E500022C2057D01E4FF1224042285A72C120181
:100E600094FF9000011201ADFEE4F5A7EE655E600F
:100E70001DEE655E601853D9F5EE14600C14600E1B
:100E80002402700A43D908800543D90280009000EB
:100E9000021201ADF55F9000031201ADF55B900009
:100EA000041201ADF5609000051201ADF55C9000F3
:100EB000061201ADF5619000071201ADF55DAE5F60
:100EC000EE7009AE5BEE7004F5FBF5FCAE60EE7003
:100ED00009AE5CEE7004F5E9F5EAAE61EE7009AEBC
:100EE0005DEE7004F5EBF5ECE55A6F60488F5AEF54
:100EF00014600F14601514602224037038123191AD
:100F0000803343E2017D017F07802543E2027D01BA
:100F10007F071224727D017F08801543E2037D0163
:100F20007F071224727D017F081224727D017F09E0
:100F3000122472D2DE852CA722C0E0C0F0C083C08C
:100F400082C0D075D000C000C001C002C003C00480
:100F5000C005C006C0071238328F4112383D8F429B
:100F60001238488F431238538F44E54130E344121E
:100F700039C71239417893122BA8700618E664031A
:100F8000600DEF122BB2700A7892E6640270034390
:100F9000420178A8E6122BAA700918E664037003D0
:100FA00043430278AF122BA8700918E6640370035C
:100FB000434304E54130E203122AD1E54130E10325
:100FC000123948E54130E003123576E54230E2035C
:100FD0001220AFE54230E10312222AE54330E2035A
:100FE0001213EEE54330E103121330E54230E00323
:100FF00012161DAF44123827D007D006D005D004F2
:10100000D003D002D001D000D0D0D082D083D0F095
:10101000D0E0328F498B4A8A4B894C85A750E549ED
:1010200024FD500F8000122A677D7B7C02123980DC
:101030007FFC22E549600A7882E6640660037FF758
:1010400022E549122A78894FE54F2405F8E6FF6426
:1010500001600BEF640570037FFB227FFE221239D3
:10106000799204122A51AB4AAA4BA94CA84F1202FA
:101070007BE54F2403F8A64D08A64EE54F2405F85E
:101080007602A203E4335401FFE54F2406F8E65448
:10109000FE4FF6E54914600F14602424027039787D
:1010A00093E64404F68031122A8740047D40800490
:1010B000AF4EAD077894120272D2057F01801612EE
:1010C0002A8740047D408004AF4EAD07789B120212
:1010D00072D2057F02122404300403122A60855064
:1010E000A77F0022122DD7EFC39414748094804000
:1010F000030211A9ED6401700E74572F122DB5E093
:10110000640170030211A9122DBD502DA8067401AF
:10111000088002C333D8FCFB42D4ED6008EB42F1F7
:10112000EB42808004EBF452F1A8067401088002BF
:10113000C333D8FCF452A48060122DCE502DA806E3
:101140007401088002C333D8FCFB42D5ED6008EB84
:1011500042F2EB42908004EBF452F2A806740108CC
:101160008002C333D8FCF452A5802E75A720A806B0
:101170007401088002C333D8FCFB42CCED6008EB5D
:1011800042F3EB42A08004EBF452F3A8067401088A
:101190008002C333D8FCF452A6ED64017009745781
:1011A0002F122DB57401F08CA7227546FF788BE6BF
:1011B0001846600302126A7884E6541F24FE600316
:1011C00002126A7887E61846600302126A122C4AF5
:1011D000547FFF4E700B122C3F4006E4F54602127E
:1011E0006AC3EF9405EE9400400302126A7882E627
:1011F00064067076F5467889E6547FFF12382778C2
:1012000089E630E70B75AE1175AF40E5AE20E7FB20
:101210007889E620E71875AE94E5AE20E7FB53AF7A
:10122000DFE5AE20E7FB43AF80E5AE20E7FB788942
:10123000E624FE60162481601D1460252481702A36
:1012400078A7E6640360237601801F78AEE6640326
:101250006018760180147899E66402600D7601804A
:101260000978A0E6640260027601AF46228B2C8AE0
:101270002D892E120194FF900320F090000112019D
:10128000AD900321F09000021201AD90030BF0909D
:1012900000031201AD90030DF09000041201AD9017
:1012A000031EF09000051201AD90030CF0EF6043B7
:1012B000A312132090031E12132090030CE0FF7D55
:1012C00002120AABE4F52F12001950537406252FB1
:1012D000F582E433F583AB2CAA2DA92E1201ADFFC4
:1012E000120003EFF0120003E0FF7D02120AAB05CB
:1012F0002F80D490030D12132890031E12132890F0
:10130000030CE0FF7D011210E4E4F52F12001950E8
:101310000E120003E0FF7D011210E4052F80ED2284
:10132000E0FF7D02120AAB22E0FF7D011210E422F1
:10133000C2037F01123827123749501575AE94E564
:10134000AE20E7FB53AFBFE5AE20E7030213ED800D
:10135000F61237CE40030213ED1239C28F4578A73B
:10136000E66403600A08E64402F67546F9805CC349
:1013700078A6E6954518E69400500E78A776010801
:10138000E64402F67546F2804278A2120272AD453A
:101390007F0112298D78A8E654FDF6AF457E00C383
:1013A00078A6122F0478A6E618466006E545644044
:1013B000600678A77601D203E4F54675AE94E5AEF3
:1013C00020E7FB53AFFEE5AE20E7FB78A8E6FF542D
:1013D0000164017018300304EF54FEF6E545FB7A12
:1013E0000078A5122F17AD467F031233C722C20320
:1013F0007F02123827123749501575AE94E5AE209A
:10140000E7FB53AFBFE5AE20E7030214AB80F61253
:1014100037CE40030214AB1239C28F4578AEE66472
:1014200003600A08E64402F67546F9805CC378ADAD
:10143000E6954518E69400500E78AE760108E6442D
:1014400002F67546F2804278A9120272AD457F021B
:1014500012298D78AFE654FDF6AF457E00C378AD16
:10146000122F0478ADE618466006E5456440600634
:1014700078AE7601D203E4F54675AE94E5AE20E78A
:10148000FB53AFFEE5AE20E7FB78AFE6FF54016407
:10149000017018300304EF54FEF6E545FB7A00783E
:1014A000AC122F17AD467F041233C722280000006C
:1014B0000001040001000000000000000001574985
:1014C0004E555342000000000000000000000000E4
:1014D00000000000920000000001050001008800EB
:1014E0000000070000002A00440065007600690043
:1014F0006300650049006E007400650072006600BC
:101500006100630065004700550049004400730016
:101510000000500000007B00350042003300340022
:1015200042003300380042002D00460034004300E2
:1015300044002D0034003900430033002D004200E8
:101540003200420042002D003600300045003400D9
:1015500037004100340033004500310032004400C0
:101560007D00000000008D2F8B2C8A2D892E75A701
:10157000209000021201ADF5A2E4F5A7900003123D
:1015800001ADFF656F600FD200C201122BFA90000F
:10159000031234D4F56F9000011234D4600E24FE8F
:1015A000600C24FE60172403702480198008123414
:1015B000C9D20712177C1234C9C207800E1234C96F
:1015C000C207121613120194FFD20712177CAE3114
:1015D000AF32AC34AD35852F3B7B03120BA2AB2C65
:1015E000AA2DA92E9000011201AD600E24FD6011FC
:1015F00024FE600D2404701A800F1234C9D20780B3
:101600000E1234C9D207121613120194FFC2071228
:10161000177C2212177CAB2CAA2DA92E22E4FF12D4
:1016200038271237224005123715501D75AE11E4C8
:10163000F5AFE5AE20E7FB75AE1175AF80E5AE20E6
:10164000E7FB78927601E408F61237C2507178937E
:10165000E6FF122BB17003EF80627892E6640170AE
:101660004C788CF6122A917F841216CFEF3395E0D6
:10167000FEBEFF17BFFD147884E6FFC41354037049
:101680000512202D803912005E80347884E6FFC474
:10169000131313540170287892E664036021788B49
:1016A000E61846601A7893E64408F680127892E6C7
:1016B00064037005121E9680067893E64402F6785D
:1016C00092E66402700812372F4003120D78228FC1
:1016D00045E4F546F5477548FDA807E664C0702661
:1016E000E82405F9E7640419476003021779F5480F
:1016F000F5467547281235DF50048E468F477BFF2D
:101700007A1479AC8028A845E664C17030F548E8C1
:101710002405F9E764051947705FF546754792128D
:1017200035DF50048E468F477BFF7A1479D4854687
:101730004D85474EC203E4FF121013803CA845E6D6
:1017400064407035E804F8E66452702DE5452403E2
:10175000F9E764A5700419E764A5701DE545240543
:10176000F9E719477013E5452407F9E719477009A8
:10177000F8F6F5A775EF1280FEAF4822EF1202D4FB
:1017800017C00017C50117CA0217CF0317D40417D3
:10179000D90517DE0617E30717E80817ED0917F252
:1017A0000A17F70B17FC0C18010D18060E180B0F73
:1017B000181010181511181A12181F1300001823EA
:1017C000A207928022A207928122A207928222A2DD
:1017D00007928322A207928622A207928422A2075E
:1017E000928522A207928722A207929022A20792B4
:1017F0009122A207929222A207929322A207929488
:1018000022A207929522A207929622A207929722DD
:10181000A20792A022A20792A122A20792A222A22C
:101820000792A322C0E0C0F0C083C082C0D075D0B0
:1018300000C000C001C002C003C004C005C006C093
:101840000775A7008598587F021237AAE55830E03F
:101850002F900345E06026900347E0FEA3E0F58269
:101860008E83E599F0900347E475F0011201EC9046
:101870000345E014F0E070081239BC8003859959E3
:10188000E55830E129900346E06020900349E0FEEE
:10189000A3E0F5828E83E0F599900349E475F001A9
:1018A0001201EC900346E014F080031239D8D007FF
:1018B000D006D005D004D003D002D001D000D0D0C3
:1018C000D082D083D0F0D0E0327546FF788BE61816
:1018D0004660030219667884E6541F24FE60030202
:1018E0001966122C4A547FFF4E700A122C3F400595
:1018F000E4F5468071C3EF9405EE94005068788754
:10190000E6184670617882E66406705AF546788972
:10191000E6547FFF1238277889E630E70B75AE1161
:1019200075AF10E5AE20E7FB7889E620E71075AECD
:1019300094E5AE20E7FB43AF20E5AE20E7FB7889D6
:10194000E624FE6011248160131460162481701651
:1019500078A77606801078AE7606800A78997606A3
:10196000800478A07606AF46228F7385A774EF6057
:1019700005122A58400D122A677D6E7C01123980AB
:101980007FFC221239799217122A51E57324FE60E6
:101990001A14602714603F24037054789976067FE8
:1019A000011219FBE5AE30E74680F978A076067F94
:1019B000021219FBE5AE30E73680F978A776067F8C
:1019C0000112382775AE94E5AE20E7FB43AF20E562
:1019D000AE30E71B80F978AE76067F0212382775A5
:1019E000AE94E5AE20E7FB43AF20E5AE20E7FB3049
:1019F0001703122A608574A77F002212382775AE5C
:101A00001175AF10228F7585A776EF6005122A58E1
:101A1000400D122A677D1C7C021239807FFC221245
:101A200039799218122A51E57524FE601A1460273C
:101A300014603F24037054789976017F01121A973D
:101A4000E5AE30E74680F978A076017F02121A975A
:101A5000E5AE30E73680F978A776017F01123827A6
:101A600075AE94E5AE20E7FB53AFDFE5AE30E71B84
:101A700080F978AE76017F0212382775AE94E5AE14
:101A800020E7FB53AFDFE5AE20E7FB301803122A57
:101A9000608576A77F002212382775AE11E4F5AF76
:101AA000227F067A0079297E007D007B010204A452
:101AB00014FFE4FCFD7BE87AFDF9F8D3020250F054
:101AC000E52525E02402F582E43400F583227E0139
:101AD0007F067A01796B7D007B010204A4E5252550
:101AE000E02401F582E43400F583227B017A017958
:101AF0006D90016CE0FD227B017A01796C22782ED9
:101B00007C017D017B017A0079007E007F2922E43F
:101B1000F579F57AD2117B017A0179ABEF22E4F500
:101B200079F57A7B017A00792F22057AE57AAE7908
:101B300022900029E0FF90002BE0228F4C8B4D8AF1
:101B40004E894F85A753E54C601624FD6012146042
:101B50000F8000122A677D1A7C011239807FFC22D7
:101B6000E54C600A7882E6640660037FF722E54C64
:101B7000122A788952E5522405F8E6FF6401600BC9
:101B8000EF640570037FFB227FFE221239799204F5
:101B9000122A51AB4DAA4EA94FA85212027BE55210
:101BA0002403F8A65008A651E5522405F87603A2AE
:101BB00003E4335401FFE5522406F8E654FE4FF6E1
:101BC00054F7F6300403122A608553A77F00228F52
:101BD00032E4F534123121EF7003021C607FF01201
:101BE00030367D40EDFF7E00D394007480948040B9
:101BF0006FEF24FFFFEE34FFFEEF7803CEC313CE6A
:101C000013D8F9F5331231B5EF24FF92001231B534
:101C1000EF24FF9201300108300020E4F5348040C9
:101C2000200018E532D39D500EE5326D600D740C26
:101C30002533F8E630E004D2008D34A200E433FF0F
:101C4000123563740C2533F8E6C313FFA200E433A6
:101C500075F080A42FFF740C2533F8A6071D80842F
:101C6000AF34228B268A27892885A729122A511268
:101C700039E6E4FFEFC3943974809480500974808E
:101C80002FF8E4F60F80ED122A7112028478B01258
:101C90002A6E9000031202A478B3122A6E900006F6
:101CA0001202A478B6122A6E9000091201AD788152
:101CB000F6122A8075A72043B32075A72053B57F5D
:101CC00075AE0175AF08E5AE20E7FB75AE0B75AFDD
:101CD0000FE5AE20E7FB12002678827603122A6019
:101CE0008529A775AE0175AF01E5AE20E7FB7F0042
:101CF000227546FF7886E66003021D7C7884E654F0
:101D00001F7079788BE61846707218E61846706C6A
:101D10007882E66404702E122C51FF4E6009122C5A
:101D2000346F7001EE70557887E67880F6122C34A7
:101D3000788766700218E67040D203122B4A7F063D
:101D4000122E1580347882E664067030122C51FF12
:101D50004E600A122C34B50723E4B5061F7887E6D7
:101D60007880F67887E61846700A7F04122E1512DE
:101D7000300D8005C203122B4AE4F546AF462278A7
:101D80007FE4F6D8FD7581BA021DC6022C6DE4937E
:101D9000A3F8E493A34003F68001F208DFF480295E
:101DA000E493A3F85407240CC8C333C4540F44204D
:101DB000C8834004F456800146F6DFE4800B01023C
:101DC0000408102040809028B6E47E019360BCA3F4
:101DD000FF543F30E509541FFEE493A360010ECF8A
:101DE00054C025E060A840B8E493A3FAE493A3F8B4
:101DF000E493A3C8C582C8CAC583CAF0A3C8C58274
:101E0000C8CAC583CADFE9DEE780BE8B2E8A2F8968
:101E1000308D31D3E531943D748094805077123306
:101E200042C2AFAF33AE32123919E5332401FFE4B9
:101E30003532FEE5310425E0FD1234F1E5332402AC
:101E4000FFE43532FE7D031234F1E4F534F535C399
:101E5000E53595317480F8653498502EE5332403C8
:101E6000FFE43532FEE5352FFFE5343EFEAB2EAA0A
:101E70002FA9308535828534831201ADFD1234F1EE
:101E80000535E53570C9053480C57D01AF33AE3207
:101E90001234F1D2AF227893E613920312385E8F98
:101EA00045C37891E69F18E69400500E789276012B
:101EB00008E64402F67546F28055788D120272AD3E
:101EC00045E4FF12298DAF457E00788FEF26F61886
:101ED000EE36F6C37891E69FFF18E69EFEF608EF11
:101EE000F6E4F546EF4E701CE5456440601675AEAD
:101EF0001175AF48E5AE20E7FB7892760108E6540D
:101F0000FEF6800B75AE1175AF40E5AE20E7FB30F5
:101F1000030CE545122B9BAD46E4FF1233C722E4C8
:101F2000F5259000007402F0E4F525C3E52594142E
:101F300074809480504974572525F582E43401F566
:101F400083E024FC601724037025AF2512276FE47B
:101F500033FF121ADDEF121ABFE4F0801DAF251215
:101F6000231DAC06121ADDEC121ABFEFF0800B1223
:101F70001ADD74FF121ABF74FFF00525021F2B1221
:101F80001AFE120480EF3395E04F60197B017A004E
:101F90007900754D00754E29C2037F01121013128E
:101FA0001AFE12016E22AE07E4FB12382730051329
:101FB000A8067E007410088005C333CE33CED8F94E
:101FC000FF8013AF067E007420A807088005C33386
:101FD000CE33CED8F9FFD3ED9FEC9E500343038060
:101FE00030060343034030042043032030050343FD
:101FF000030475AE1175AF40E5AE20E7FB75AE1278
:102000008BAFE5AE30E72580F975AE1475AF80E58E
:10201000AE20E7FB75AE158BAFE5AE20E7FB2005E4
:102020000B75AE12E4F5AFE5AE20E7FB22E4F54513
:102030007885E61202D4205500205C01206303203D
:102040006A05207106207808207F0920860A208DE5
:102050000B00002094120C928F45803B1211AA8F26
:102060004580341218C98F45802D1224DA8F45809F
:10207000261208A58F45801F1228678F45801812E9
:102080001CF18F458011122B0E8F45800A122CA651
:102090008F4580037545FFE4FF123827AF45EF33C6
:1020A00095E0FEBEFF06BFFF0312005EAF45227F34
:1020B0000212382712373C500D75AE11E4F5AFE52A
:1020C000AE30E76B80F978A0E664027062789E1209
:1020D0002F219440EE940040047F4080008F45788B
:1020E0009F122F0178A1E6139203789E122F21945C
:1020F00000EE9400401FD3EF9440EE940040047D26
:10210000408004789FE6FD789B120272D2057F0220
:10211000122404800978A1E654FEF61876013003F3
:102120000EE545789E122F14E4FD7F021233C7227C
:102130008F49ED6406707590034BF090034BE0FF00
:10214000C39406748094805038EF540170047F016A
:1021500080027F00123998E4F54AF54BAE4AAF4B46
:10216000E4FCFD7B607AEAF9F8D3120250400A05DC
:102170004BE54B70E7054A80E390034BE004F080A9
:10218000BA7B017A007929755000755106C2037F28
:1021900003121B3B301102D2127B017A01796B755D
:1021A0005000755140D2037F04121B3B22120100E4
:1021B00002FF000040C4107E8A15010102030109DC
:1021C000022E00010100C0320904000004FFFFFFDD
:1021D0000007058102400001070582024000010757
:1021E0000501024000010705020240000104030945
:1021F0000401160354726565686F707065720001A2
:102200001E0354726565686F707065722055534285
:1022100000FF21EDFF21F1FFF840FFF800FFF8403B
:10222000FF21ADFF21BFFF2211057F0112382712C8
:10223000373C500D75AE11E4F5AFE5AE30E7678081
:10224000F97899E66402705E122F1F9440EE9400B4
:1022500040047F4080008F457898122F01789AE6DD
:10226000139203122F1F9400EE9400401FD3EF949B
:1022700040EE940040047D4080047898E6FD789418
:10228000120272D2057F011224048009789AE65462
:10229000FEF618760130030EE5457897122F14E408
:1022A000FD7F011233C7228F4BE4F54D85A74EEF1A
:1022B0006005122A58400F122A677D4D7C001239A2
:1022C00080754DFC804B1239799204122A51E54BEE
:1022D000122A78894CE54C2405F8E664016032E561
:1022E0004B24FE600E146012146013240370147FDC
:1022F0000180027F02122D1680097F0180027F0279
:10230000122D4AE54C2405F87601E54C2406F8E444
:10231000F6300403122A60854EA7AF4D22ADA7E424
:10232000F5A774222FF582E43403F583E01202D47A
:10233000236A00234C012360022356032351042304
:102340006505235B062372070000237875D11C8086
:102350001C75D11C801F75D19C801275D19C801575
:1023600075D194800875D194800B75D18C75BC01A2
:10237000800675D18CE4F5BCEF90346593F5BBD243
:10238000EC30EDFDC2EDE5BEC313FEE5BD13FF8DE0
:10239000A7227597A57597FF7F297A007900121AF1
:1023A000A77E007F297A01792E121AD6121AA1125D
:1023B0001ACE7E007FFF7D00121B231204A4122F71
:1023C000B712377A12399E1238CD123972123891FB
:1023D0001231911230D4E4F52CF52DAF2D7D011280
:1023E00010E47457252DF5827401352CF583E4F043
:1023F000052DE52D7002052CC39414E52C64809402
:102400008040D8228F518D528B538A548955E5AE26
:1024100020E7FBE5514420F5AEE553146013240397
:10242000601A146020147026AD55AF5212348D809E
:102430001DAC54AD55AF521234108012AD55AF5291
:102440001234A18009AC54AD55AF521233F93005A6
:1024500020D3E5519400748094804015AF51123818
:102460002775AE91E5AE20E7FB43AF01E5AE20E76F
:10247000FB22122DD7122DBD501DA8067401088015
:1024800002C333D8FCFBF4FA52D4ED6005EB42A44E
:102490008045EA52A48040122DCE501DA80674013A
:1024A000088002C333D8FCFFF4FB52D5ED6005EF82
:1024B00042A58023EB52A5801E75A720A8067401B3
:1024C000088002C333D8FCFFF4FB52CCED6005EF6B
:1024D00042A68003EB52A68CA7227546FF122C5110
:1024E000FFC39480EE94005054788BE61846704DEC
:1024F0007884E6541F70467889E61846703F7882E3
:10250000E66403700BEF4E601A7F04122E158013E1
:102510007882E66404700F7887E6184670057F03BA
:10252000122E15E4F546AF46EF3395E04F700EF5E9
:10253000AE7887E64480F5AFE5AE20E7FBAF4622F4
:1025400085A77C123708505875A72053B3BC122AB0
:102550008043B501123931921575A71053C1CF12BE
:1025600039395017D21475A72043C602E4FFEFC3D0
:1025700094037480948050050F80F3C214123325A5
:1025800012370840F830140675A72053C6FD3015E1
:102590000675A71043C130122A8075A72043B340A7
:1025A000857CA722750A417E007F087D007B007A2A
:1025B00000790C1204A4E50A6032FF121BCF8F0AC7
:1025C000E49002EAF078EB7C027D01FB7A00790C62
:1025D000FE7F0812016E7F0212308640F9123264CB
:1025E000754E09C2037F0212101380CA9002EA746A
:1025F000FFF07F0212308640F9123264754E09C234
:10260000037F0202101390002AE024FE602214606F
:102610002814601314602E24047034900029E0FF05
:102620007D011210E48028121B31FD122ED3801F71
:10263000900029E0FF7D028007900029E0FF7D03E4
:10264000120AAB800A121B3124FF920712177C1268
:102650001AA17B017A007929755000755106C203D1
:102660007F03021B3B8B328A3389348D35E4F53688
:10267000E536C39535504790030BE0940874809479
:1026800080AB32AA33A934402275F002E536A4F5B6
:102690008285F0831201ADFE75F002E536900001EF
:1026A0001202661201ADFDEDFF800C853682758346
:1026B000001201ADFF7E0012316C053680B222E4BB
:1026C000F531F532F530E5301238BB500FAF30122E
:1026D000231DEF6232EE6231053080EA53323F75DE
:1026E0003100D3E532943DE5319400400675310068
:1026F00075323DC3E532940AE53194005006E53267
:102700002430FF22C3E5329424E5319400E53250B1
:10271000042437FF22243DFF22E4F5A7120194F59B
:102720000B14600A146038240270430239721239A3
:102730006B9000011201ADF58D9000021201AD60A9
:1027400005538EF78003438E089000031201AD609D
:102750000553A4EF800343A41012327F023678752C
:102760008D30438E0853A4EF12396B1239AA22EF31
:102770009034B593FE122DBD5015A8067E0074014D
:10278000088005C333CE33CED8F9FFAD80802F1239
:102790002DCE5015A8067E007401088005C333CEE7
:1027A00033CED8F9FFAD908015AF067E007401A836
:1027B00007088005C333CE33CED8F9FFADA0EF5D57
:1027C00024FF22300C50E51E7018755701E557C3E1
:1027D000951D5018E557123393D20712177C0557F1
:1027E00080EBE51E123393C20712177C75A710E524
:1027F0001E75F003A424AEF582E43402F583E0FEF6
:10280000A3E08EA5F5A4051EE51EB51D09200B034A
:10281000123450E4F51E228B2C8A2D892E1201943D
:1028200024FE60282402703EAB2C9000021200129D
:10283000FF1231D9AB2C12000FFDD3940074809499
:10284000804023E92403F9E43AFA8017AB2CE52E03
:102850002402F9E4352DFAC002C00112000FFDD0A8
:1028600001D002122665227FFF7889E6184670455E
:1028700018E61846703F788BE66401184670367883
:1028800084E6FEC4131313540164017028EE541F30
:1028900070237882E6640470087BFF7A34798B8039
:1028A0000C7882E66406700DFB7A0079807D01FC6D
:1028B000123379E4FF22017100017200C11602B9DE
:1028C000FFFF015F00015B00016000015C0001612E
:1028D00000015D00015A00015E00C10BC10CC10D79
:1028E000C10EC10FC110016F0002790000C113C1F8
:1028F00012C11141034600410345000109000108CE
:1029000000008D2CAF2CD3EF941474809480503938
:1029100075A710EF700CF5A5F5A4C20C5398FBF544
:102920001F22D20BE52C78717C021233A312016EA8
:10293000852C1F200C11123450E4F51E439804D24C
:102940000C74FFF5A5F5A4C20B2285A7251239E961
:1029500012394F12395612389B1239CC12395D1286
:10296000343B1233E012360F1236861238A5123776
:10297000FB1238AF1236931236A01239D01236AD90
:102980001239D41235FF1238FE8525A7228F478DC4
:10299000488B498A4A894BD3E548940074809480D7
:1029A000402CE5AE20E7FBE54744E0F5AEE54914F1
:1029B000600E2403601224FE7014122F2802003EC1
:1029C000AC4A122F28023286122F281232E722C078
:1029D000E0C0F0C083C082C0D075D000C000C0018C
:1029E000C002C003C004C005C006C00775A71053CD
:1029F000983F1227C3D007D006D005D004D003D00B
:102A000002D001D000D0D0D082D083D0F0D0E0323C
:102A1000E4F52EF52FF52E1238B9500BE4FDAF2E4C
:102A2000122ED3052E80F0E4F52E1238B9500E1276
:102A300026BF7462252EF8A607052E80EDE4F52E3C
:102A40001238B9500B7D01AF2E1210E4052E80F024
:102A50002275A71053CEFE22C39405748094802261
:102A600075A71043CE01227BFF7A3279C822120269
:102A70007BAB26AA27A9282275F007A4248DF9226A
:102A800075A72053B5F822D3E54E9440E54D940048
:102A900022754584A9457A007B007D08E4FF122950
:102AA0008D75AE1175AF40E5AE20E7FBE54524021C
:102AB000122B852402122BB9E5452404122B852400
:102AC00004122BB9E5452406122B852406122BB9D6
:102AD00022789276017899760678A0760678A7769D
:102AE0000678AE760675AE0F75AF8FE5AE20E7FBC4
:102AF00075AE0175AF01E5AE20E7FB75AE0B75AFA6
:102B00000FE5AE20E7FB7F03122E150239E5122CEC
:102B10004A7DFFC39401EE9400502C788BE664014B
:102B2000184670237887E61846701C7884E664811E
:102B300070157882E66406700E7BFF7A34798B7D9F
:102B400001FC123379E4FDAF052230031078997649
:102B50000178A0760178A7760178AE7601122C6212
:102B60007F01121FA6122C627F02122B777F0112A7
:102B70002B777F02021FA6121FA6C204D205C2062F
:102B80007D407C0022F8E6FC08E6FAECFFEAFEE570
:102B90004522788F26F618E436F622FB7A007890E4
:102BA000E6F54C08E6F54D22E6FFC3135401640137
:102BB000221313135401640122F8A60608A6072263
:102BC0008E398F3AE4F53B90030BE0FFE53BC39F62
:102BD0005027740E253B120007E0FFC007AE39E511
:102BE0003AA83B088005CEC313CE13D8F913920739
:102BF000D00712177C053B80CE22AEA775A720A276
:102C000000920FA201920ED210C2F83000047D4053
:102C100080027D00ED4FF5A130010DD2FA300003A6
:102C2000D38001C392FB8004C2FAC2FB53F80FD2D7
:102C3000F88EA72278B31202729000050201AD78D7
:102C400082E6C3940474809480227888E6FE08E6C5
:102C5000227886E6FE08E6221202728B478A4889AD
:102C60004922D204D205C2067D407C002212294AA4
:102C700012239230160BC21674FF78B9F608F6804C
:102C80000E78BAE61846600708E61618700116783E
:102C9000BAE618467008120076EF6406600375976E
:102CA000A512330680CD7FFF7889E6FE7887E6FDA2
:102CB000EEC394017480948050237882E664067099
:102CC0001C788BE618467015AE05EE70107884E619
:102CD000541F64017007C203122B4AE4FF22AEA7FF
:102CE000E4F5A790033EEFF0900338ECF0A3EDF08D
:102CF000900336EAF0A3EBF0900340E53AF090033E
:102D00003FE53BF090034374FFF0300804D20980A4
:102D100002D2C58EA72212382775AE1175AF08E50D
:102D2000AE20E7FB75AE91E5AE20E7FBE5AF20E313
:102D3000F375AE1175AF08E5AE20E7FB75AE91E512
:102D4000AE20E7FBE5AF20E3F32212382775AE147F
:102D500075AF10E5AE20E7FB75AE94E5AE20E7FB5E
:102D6000E5AF20E4F375AE1475AF10E5AE20E7FBD8
:102D700075AE94E5AE20E7FBE5AF20E4F3227D02DB
:102D80007F01120AAB7D027F0A120AABE4F51475CB
:102D90001580F51675170A74FFF518F519751A01DF
:102DA000751B80751C007B007A0079147D03022955
:102DB000027457253AF582E43401F58322EFC39477
:102DC000087480948022AF3CA80774010822EFC3E6
:102DD00094107480948022EF9034B593FEACA7E4F5
:102DE000F5A722D3EF9400EE940240047E027F0008
:102DF000C3EF9402EE940050047E007F025307FE5E
:102E0000EEC313EF13FF1FADA775A720C2F88FA263
:102E1000D2F88DA7228F477882E6F548122A5840CB
:102E200009EF122A59500312300DE547640570046A
:102E30007883A6487882A647E54865476007AD478E
:102E4000AF4812213022757DFFC21BEF25E0FFAC99
:102E500002AD01E5322401F9E43531FAAB018533E5
:102E60003A85343B122CDE301BFDAB30AA31A9323F
:102E7000E57D0201DA90031FE064016026E4F57E3F
:102E800090030BE0FFE57EC39F5012740E257E1267
:102E90000007E0FF7D011210E4057E80E390031F30
:102EA0007401F0228F828E83E49364017023740294
:102EB000936403701C0493FD54017015C3ED9404D6
:102EC00074809480400BD3ED947C74809480500186
:102ED00022C3228F3085A731E4F5A774222530F56F
:102EE00082E43403F583EDF0123756E06404601099
:102EF000E4FDAF301210E48531A71237567404F0A8
:102F0000227E00C3E69FF618E69EF618EF26F61816
:102F1000EE36F622FB7A00E6F54C08E6F54D22780F
:102F200097E6FE08E6FFD322AD4BAB47AF4822152C
:102F30007FA87FA605157FA87FA607157FA87F120B
:102F40003162E6A87F086005E642C08004E6F452DC
:102F5000C0A87FE6F5A7057F057F057F22AEA77590
:102F6000A720AC9A5304CCED5403FDEF5403C45492
:102F7000F04D4204E5A120E60DEB6007430402F5A5
:102F8000A280035304FD8C9A8EA72290031FE06059
:102F900025E4F53990030BE0FFE539C39F50127427
:102FA0000E2539120007E0FF7D02120AAB053980B9
:102FB000E3E490031FF0227EF87F00122EA4400E5F
:102FC000122A107B007A0079627D081239077EF898
:102FD0007F40122EA4400B7BFF7A3879117D0A12B4
:102FE00039102275A70030D808855FFB855BFCC2CD
:102FF000D830D9088560E9855CEAC2D930DA08851D
:1030000061EB855DECC2DAC2DF53F7DF3285A74A98
:103010001239799203122A51754901C3E549122ADE
:10302000595009AF491222A7054980EF3003031216
:103030002A60854AA7228F35E4F536C3E536940821
:10304000748094805017AF36A807E535088002C316
:1030500013D8FC5401FF123563053680DE22E4F5F7
:1030600033F532C3E53294087480948050151231E0
:10307000B5AE32A806EF088002C333D8FC42330550
:103080003280E0AF33228F32C3EF122A59400C1244
:103090002A677D9E7C00123980D322E532122A787D
:1030A000E92405F8E664017002C322D322157FA843
:1030B0007FA607157F157FA87F08123162E5C056ED
:1030C000A87FF6A87F08E6F5A7A87FE6FF057F059D
:1030D0007F057F22E4F51DF51FF51EFE7F3CFD7B7D
:1030E000017A0279AD1204A47E007F3C7D007B0151
:1030F0007A0279711204A45398FB22AB07AA06AC9A
:10310000A7E4F5A7EB2401FEE43A900349F0A3CE2F
:10311000F0ED14900346F08B828A83E0F5998CA73A
:1031200022E4F5A7758D30538EF7C299D29C75991C
:10313000F03099FD3098FDAF99438E08EF64F06050
:10314000037F01227F002290033CE475F00112020C
:103150000285F082F58322AEA7E4F5A753C1BF8FA5
:10316000D722A6A7E4F5A7A87F0808228E378F38B4
:10317000122F8B90030DE0FFD20712177C90031ED5
:10318000E0FFC20712177CAF38AE37122BC00231F6
:10319000FC85A72EE4F5A7C2DE7D017F071210E4AF
:1031A0007D017F081210E47D017F091210E453E2D3
:1031B000FC852EA722C299AF99D29C7599FF3099B0
:1031C000FD3098FDAF99EFF470047E0180027E001F
:1031D000EE60037F01227F00228F32122F8B90033B
:1031E0000DE0FFC20712177C90031EE0FFC207121A
:1031F000177CAF327E00122BC00231FC12321490C9
:10320000030CE0FFD20712177C123214900321E066
:10321000FF02380690030CE0FFC20712177C22ADB4
:1032200007ED4480F5AEE5AE20E7FBAFAFEF7F00E2
:10323000FEED144480F5AEE5AE20E7FBADAFED4208
:103240000722E4FFC21DAEA775A720EFC394037445
:10325000809480500AE5A130E702D21D0F80EC8EE9
:10326000A7A21D227B017A0279EA754D00228530E2
:1032700082758300A3A3AB2CAA2DA92E0201AD7EDB
:10328000027FEA7D20228D828C831FEF600BE5AEEA
:1032900020E7FBE5AFF0A380F1E5AE20E7FBEB44D0
:1032A00020F5AEE5AFF0221201946018E4F5A79086
:1032B00000011201ADF58C1235881238F5D200E408
:1032C000FF02007E123891222E5C6C69625C65669A
:1032D0006D385F7573625C7372635C65666D385FD1
:1032E000757362642E6300A8051FEF600BE5AE20C6
:1032F000E7FBE5AFF20880F1E5AE20E7FBEB442009
:10330000F5AEE5AFF2227F031230864003122606A7
:103310007F0412308640031204EE7F011230864093
:1033200003121F1F22E5A9547FFF75A930E4F5A7FA
:10333000439A408FA9E5A9547F6F6005E4F5A98FF2
:10334000A922AFA7E4F5A775FF80FEEEC394C87469
:1033500080948050030E80F375EF028FA722123104
:103360005775D6FF90033AECF0A3EDF0900344EBD1
:10337000F0E4900341F08EA7227892E66401701287
:10338000788D12027B7890A60408A605087602E4E0
:1033900008F62275F003A424ADF582E43402F58327
:1033A000E0FF2275F003A4FFAEF07D0122ADA7E49B
:1033B000F5A7E598540475F040A4FFAEF0AC99EC85
:1033C000FBEF4BFF8DA7228D49EF6404700EC3EB1A
:1033D0009440EA940050028001C39213E4FEFF225D
:1033E000AF885388AF758CF3758D30758B34EF547F
:1033F00040FEEF54104E4288228D828C83AE071F10
:10340000EE600CE5AE20E7FBE493F5AFA380EE227F
:103410008D828C83AE071FEE600BE5AE20E7FBE0EC
:10342000F5AFA380EF228F56E55624FE60042402F8
:1034300070031235ACD21B85567D22E4F5A7F5A9A1
:10344000E5A9548060FA75A903E5A9548060FA22C1
:10345000851F1DE51F78AD7C021233A37B017A0224
:10346000797102016E000102030604050708090ACA
:103470000B0C0D0E0F1415161712034D00530046BA
:10348000005400310030003000EE000000A805AE0E
:10349000071FEE600BE5AE20E7FBE6F5AF0880EF17
:1034A00022A805AE071FEE600BE5AE20E7FBE2F5B4
:1034B000AF0880EF220001020306040507000102A5
:1034C000030405060700010203AB2CAA2DA92E1246
:1034D0000194FF22AB2CAA2DA92E0201AD756A0121
:1034E000756B98756C01E4F56DFB7A00796A0227BB
:1034F000198F828E8375B7A575B7F1438F01EDF0F3
:10350000538FFC22C21CAEA775A72030F9048FA3ED
:10351000D21C8EA7A21C22C222AFA775A720E59BB2
:1035200030E702D2228FA7A22222C223AFA775A71B
:1035300020E59B30E302D2238FA7A22322EF600C69
:10354000D200C201AF6F122BFA0238C31238CD225B
:10355000AB07AA06ADA7E4F5A7EA24FF929B8B99D7
:103560008DA722C29CC299EF60057599FF8003E484
:10357000F5993099FD227882E6C394027480948094
:1035800040057F05122E1522AFA7E4F5A7F5C1F57A
:10359000ACF5C0F5D7F5D68FA722E4900340F090A4
:1035A000033FF0900342F0C208C20922AFA7E4F53E
:1035B000A753C17F43C18053C0C78FA722E5A1A2F3
:1035C000E6920FE5F8540C24FF920ED21022AFA71A
:1035D00075A720E5A120E0FBAEA38FA7AF0622E8E8
:1035E0002406F8E6FE08E6FFC39547EE954622E579
:1035F000C8540453C8FB43C81043C80442C82275CA
:10360000E69175A71075CE10E4F5A775A89022E590
:103610009154045391FB75943C439104429122AF21
:10362000A775A720E5F75470C4540F8FA7FF22AEEB
:10363000A7E4F5A753984FEB4F4DF5988EA722AF0F
:10364000A775A720A2F9B3921E8FA7A21E22AFA72B
:10365000E4F5A7A2C092198FA7A2192290033CEE0D
:10366000F0A3EFF0900342EDF022AEA775A720EF94
:10367000F4440F52F88EA722900347EEF0A3EFF028
:10368000900345EDF02275A710E59854045398FB7C
:1036900042982253F77F75DBCA75E95A75EA5A22B8
:1036A00053F77F75DCCA75EB1475EC142275A20113
:1036B00043A14053F8F343F80122AFA775A720E5D3
:1036C000F854F08FA7FF22AEA775A72030F9FD8F21
:1036D000A38EA722AFA775A72053F80EC2AE8FA75F
:1036E00022AFA775A720E5F754078FA7FF22AFA742
:1036F000E4F5A7E59854038FA7FF22C2ACE4F5A731
:10370000C2998F993099FD2275AE81E5AE20E7FB15
:10371000E5AFA2E12275AE91E5AE20E7FBE5AFA2F1
:10372000E42275AE91E5AE20E7FBE5AFA2E222759B
:10373000AE91E5AE20E7FBE5AFA2E12275AE91E5E3
:10374000AE20E7FBE5AFA2E52275AE94E5AE20E73B
:10375000FBE5AFA2E62274572530F582E43401F58B
:103760008322AFA7E4F5A7AEC28FA7AF0622AFA70B
:10377000E4F5A7A21A92C18FA72275A72043F402ED
:10378000439C02C2B122AFA775A720AEA38FA7AFFB
:103790000622123921A2E3921F8FA7A21F221239FB
:1037A00021A2E192208FA7A22022AEA7E4F5A7EFE5
:1037B000F452988EA722AFA7E4F5A7AE998FA7AFD2
:1037C000062275AE91E5AE20E7FBE5AF132275AE9C
:1037D00094E5AE20E7FBE5AF1322AFA775A7205312
:1037E000B37F8FA722122A511237DAE4FF022E1577
:1037F000123157ED4401F5D68EA722C2DE75D909E4
:10380000759607D2DE22E4FEEEC39F50030E80F8C9
:103810002254726565686F707065720012392113E9
:1038200092218FA7A2212275AE0E8FAFE5AE20E7C1
:10383000FB2275AE86E5AE20E7FBAFAF2275AE8208
:10384000E5AE20E7FBAFAF2275AE84E5AE20E7FB27
:10385000AFAF2275AE8EE5AE20E7FBAFAF2275AEFF
:1038600096E5AE20E7FBAFAF22AFA7E4F5A7C2C055
:103870008FA722AEA7E4F5A78FC28EA722AFA7E439
:10388000F5A7D2C58FA722AFA7E4F5A7D2C48FA70B
:10389000221235AC43D44853E1FB2275BC3075B3DA
:1038A0008243E8C022E4F5A7758922438850225359
:1038B000F77F75DACAE4F5FC22E52EC3940874801C
:1038C00094802243A40753D4F843E1022243D4074F
:1038D00053A4F853E1FD22AFA7E4F5A7D2998FA72F
:1038E00022AEA7E4F5A78F998EA722AFA7E4F5A78C
:1038F000F5988FA72253D4B743E1040235AC7BFF80
:103900007A227920021C637532F8753300021E0B8F
:103910007532F8753340021E0B438F02E4FD02340A
:10392000F1AFA775A720E5A122E4FBFD7F100236C9
:103930002F75A710E5C1A2E52275A720E5C633B310
:10394000228E458F46D216227883E6FF022E157509
:10395000A720759C0222E4F5A775E3402275A71005
:1039600075C1302275A70053913F3253D4CF43E144
:10397000012243D43053E1FE2275A710E5CE132275
:103980008C548D5580FE900340E0FF2290033FE071
:10399000FF22900341E0FF22EF24FF92B122E4F5E1
:1039A0005AF55E22E4900346F022E4900345F022AB
:1039B000900346E0FF22900345E0FF2212327F028F
:1039C00036787F1702321F7F0D02321F75D10C220D
:1039D00043C1DC2243981022E4F509228F7B22D2D6
:0B39E0001B22D32222222222222222BC
:00000001FF
