:10000000021D7F740E252FF582E43403F5832290C0
:100010000001AA2DA92E0201AD90030BE0FFE52FF0
:10002000C39F220218BEAFA77892760175A720431E
:10003000B38075A72043B3408FA7220206F9A80515
:100040001FEF600AE5AE20E7FBA6AF0880F2E5AE41
:1000500020E7FBEB4420F5AEA6AF22022F81E4FFA0
:100060001237D77892760575AE1175AF20E5AE20C0
:10007000E7FB220239147882E6FF22020F23AEA7A3
:10008000E4F5A753C1F4A2003333333354F8FDEF42
:1000900044C44D42C143D6018EA7220229C8E709B4
:1000A000F608DFFA8046E709F208DFFA803E888228
:1000B0008C83E709F0A3DFFA8032E309F608DFFA60
:1000C0008078E309F208DFFA807088828C83E30984
:1000D000F0A3DFFA806489828A83E0A3F608DFFA5E
:1000E000805889828A83E0A3F208DFFA804C80D2AC
:1000F00080FA80C680D4806980F28033801080A628
:1001000080EA809A80A880DA80E280CA803389827F
:100110008A83ECFAE493A3C8C582C8CCC583CCF02B
:10012000A3C8C582C8CCC583CCDFE9DEE7800D89D2
:10013000828A83E493A3F608DFF9ECFAA9F0EDFBD9
:100140002289828A83ECFAE0A3C8C582C8CCC58321
:10015000CCF0A3C8C582C8CCC583CCDFEADEE8807A
:10016000DB89828A83E493A3F208DFF980CC88F0EC
:10017000EF60010E4E60C388F0ED2402B40400501D
:10018000B9F582EB2402B4040050AF232345822347
:100190009000EE73BB010689828A83E0225002E759
:1001A00022BBFE02E32289828A83E49322BB010CF4
:1001B000E58229F582E5833AF583E0225006E925B8
:1001C00082F8E622BBFE06E92582F8E222E58229D2
:1001D000F582E5833AF583E49322BB010689828A9E
:1001E00083F0225002F722BBFE01F322C5F0F8A3F0
:1001F000E028F0C5F0F8E582158270021583E0383A
:10020000F022A3F8E0C5F025F0F0E5821582700237
:100210001583E0C838F0E822BB0110E58229F58299
:10022000E5833AF583E0F5F0A3E0225009E9258261
:10023000F886F008E622BBFE0AE92582F8E2F5F02E
:1002400008E222E5832AF583E993F5F0A3E99322F6
:10025000EB9FF5F0EA9E42F0E99D42F0EC6480C825
:1002600064809845F022A42582F582E5F03583F577
:100270008322E6FB08E6FA08E6F922EBF608EAF63E
:1002800008E9F622BB010789828A830204D050055F
:10029000E9F8020272BBFE05E9F80204D989828AF4
:1002A000830204E2BB010DE58229F582E5833AF57C
:1002B000830204D05007E92582F8020272BBFE07D0
:1002C000E92582F80204D9E58229F582E5833AF529
:1002D000830204E2D083D082F8E493701274019315
:1002E000700DA3A393F8740193F5828883E473746B
:1002F00002936860EFA3A3A380DFE3F5F009E208AF
:10030000B5F06BDFF58067E3F5F009E608B5F05E60
:10031000DFF5805A87F009E608B5F052DFF6804E27
:1003200087F009E208B5F046DFF6804288828C83C8
:1003300087F009E0A3B5F036DFF6803288828C833F
:1003400087F009E493A3B5F025DFF5802188828C3E
:1003500083E3F5F009E0A3B5F014DFF5801088829F
:100360008C83E3F5F009E493A3B5F002DFF4020413
:1003700029808780E9809080D4803E8015806E80BF
:100380007E809D80B7808D80A380518074803C02E8
:10039000043589828A83ECFAE493F5F0A3C8C58218
:1003A000C8CCC583CCE493A3C8C582C8CCC583CCD4
:1003B000B5F076DFE3DEE1807089828A83E493F52D
:1003C000F0A3E208B5F062DFF4805E89828A83E000
:1003D000F5F0A3E608B5F051DFF5804D89828A83F8
:1003E000E0F5F0A3E208B5F040DFF5803C89828AB1
:1003F00083E493F5F0A3E608B5F02EDFF4802A80BD
:1004000002805789828A83ECFAE493F5F0A3C8C589
:1004100082C8CCC583CCE0A3C8C582C8CCC583CC78
:10042000B5F006DFE4DEE280007FFFB5F0020F22C8
:1004300040027F012289828A83ECFAE0F5F0A3C8AA
:10044000C582C8CCC583CCE0A3C8C582C8CCC5834F
:10045000CCB5F0D5DFE5DEE380CF89828A83ECFA84
:10046000E0F5F0A3C8C582C8CCC583CCE493A3C88B
:10047000C582C8CCC583CCB5F0AFDFE4DEE280A98D
:1004800088F0EF60010E4E60ABED2402B404005022
:1004900098F582EB2402B40400508E232345822376
:1004A00090037173EF4E6012EF60010EEDBB010B14
:1004B00089828A83F0A3DFFCDEFA2289F05007F7F5
:1004C00009DFFCA9F022BBFEFCF309DFFCA9F02246
:1004D000E0FBA3E0FAA3E0F922E2FB08E2FA08E27B
:1004E000F922E493FB740193FA740293F9229001C8
:1004F0006BE01202D4052901053402068A0305F5D2
:100500000405480505FE0605530706920806AA09D4
:10051000069A0A06A20B06B20C06B70D053D0E069A
:10052000C60F06CE10000006D490016CE0FF123911
:10053000720206D4121F71120E450206D490016C8D
:10054000E0FF1239480206D490016CE0FF1234F14A
:100550000206D490016CE0F528A3E0F529A3E0F5AC
:100560002AA3E0F52BA3E0F527A3E0F525E5276412
:10057000026033AF257E00D3EF94397480948040BD
:1005800025121F897A0179ABEF24C71206EA121FE0
:100590009170020579121F2A40077F0412304E40E5
:1005A000ED7F041222A37530017531017532727529
:1005B000330175340075352F7B007A007928AD251D
:1005C000121550E527640170030206D4121F897AC0
:1005D00000792FF54D85254EC2037F02120FFD12C3
:1005E0001F9170020579121F2A40077F0212304EB8
:1005F00040ED020683121F711232900206D4900160
:100600006DE0F525A3E0F526AF257E00D3EF943C01
:10061000748094804025121F897A0179ABEF24C43D
:100620001206EA121F9170020579121F2A40077FF5
:100630000412304E40ED7F041222A390016CE0FFC3
:1006400075300175310075322F8525338526347B51
:10065000017A01796F122E3F121F897A00792FE5F6
:10066000262401F54EE433F54DC2037F02120FFD3F
:10067000121F9170020579121F2A40077F02123063
:100680004E40ED7F021222A3804A121F71122718DA
:100690008042121F71120993803A121F651238B7F7
:1006A0008032121F651238C0802A121F651228B5C9
:1006B00080221237958007123795780076A5E4F5E9
:1006C000A775EF12800E121F711212578006121FAB
:1006D00071122816121F487B017A01796B75500040
:1006E000755140C2037F04021B3BF551EE34FFF508
:1006F00050C2037F04121B3B22C0E0C0F0C083C085
:1007000082C0D075D000C000C001C002C003C004C8
:10071000C005C006C00775A70020C70D7F021233B1
:10072000DA123560C2C0020874E5C054F01202D477
:1007300008270008551007E52007C94007A48007CF
:1007400064C00749E00000086D900340E090033E5C
:10075000700AE04401F5C2D20A020821E0F5C2C2E3
:100760000A02082130C136300A1090033FE014F02D
:100770006003020872C2C1020872900340E0601276
:10078000900338123112E0F5C2900340E014F002F9
:10079000087290033FE06029D2C50208727F0112FF
:1007A00033DA8020900336123112E5C2F090033F15
:1007B000E0600C14F06003020872C2C1020872C249
:1007C000C1123994D2C402086320C1030208729096
:1007D0000342E014F0600912310FE0F5C202087222
:1007E0007F0302086F30C213900343E0FF14F0EF61
:1007F0006004D2098005E4FF1233DAE5C213B39234
:100800000AA20AA0085005900341E4F0200A1290C1
:100810000341E0700320080312399D12310FE0F507
:10082000C2C2C5D208804B900341E0FF04F09003A0
:100830003AE0FCA3E02FF582E43CF583E5C2F090BA
:100840000344E0FF900341E06F702712399D90034D
:1008500041E4F0801D300A09900341E06003123941
:100860009DC2C4A20992C5C209C20880057F0212B6
:1008700033DAC2C0D007D006D005D004D003D002EE
:10088000D001D000D0D0D082D083D0F0D0E032E4FC
:10089000FDFC754AFF7884E66480600302099012CB
:1008A0002C4AF546EEFFE4600302096EEF24FE6079
:1008B0001F1460392402600302096EE546600302DA
:1008C000096E78B0122C511201947C00FD02096E61
:1008D000E546600302096E78B3122C5190000212B3
:1008E0000218FAE5F0FFEAFCEFFD02096E78B61295
:1008F000027275F003E546A4F58285F0831202A426
:10090000122C54AF467E00EF700BFC7D04788CE611
:100910005480F68059EF64EE4E700E7547FF7548AF
:100920003475492DFC7D128045122C43FF4E600A20
:10093000EF64097003EE64047034E546C378819671
:10094000502CAB47AA48A9499000011201AD7C0088
:10095000FD120194547FFF788CE654804FFFF674AB
:10096000012549F549E43548F548EF4480F6ED4C5A
:10097000601E788AE6FE08E6FFD3ED9FEC9E4004F9
:10098000AC06AD07AB47AA48A949123346E4F54A7D
:10099000AF4A228B2C8A2D892E9000011201ADF5D1
:1009A00031120194146062147003020A711470030E
:1009B000020A8D24036003020A94E50B6401701996
:1009C000C2ACF530E530C39531502DC299123236A4
:1009D000F5993099FD053080EBE50B640260030268
:1009E0000A94C2ACF530E530C39531500B12323663
:1009F000FF122FFE053080EED2AC9002E974FFF0BA
:100A00007B017A0279E9020A80E50B6401702D12FC
:100A10003966C374209F90030AF012322C754E2160
:100A2000C2037F02120FFD7E007F207D007B017AD2
:100A30000279EA1204A412324702361CE50B640262
:100A40007052C2ACF530E530C395315014123026E7
:100A500074EA2530F582E43402F583EFF005308046
:100A6000E590030AE531F0D2AC12322C754E2180AC
:100A700015C2AC1230E98F2FD2AC7B007A00792FEF
:100A8000754D00754E01C2037F02020FFDC2AC120C
:100A900025A3D2AC228F3A8D3BEF90346993F53C7D
:100AA00085A73DE4F5A7C3E53A941474809480408B
:100AB00003020B8B122DAAE0653B7003020B8BC265
:100AC00007AF3A121816E4F5A7AF3AFEC3EF122D9E
:100AD000B8503DAD3CA8057401088002C333D8FC72
:100AE000FD42D4ED42F1E53B64027011AD3CA80536
:100AF00004088002C333D8FC42A4020B82AD3CA898
:100B0000057401088002C333D8FCF452A4020B829E
:100B1000C3EF9410EE648094805033122DBF800296
:100B2000C333D8FCFF42D5EF42F2E53B64027010BC
:100B3000AF3CA80704088002C333D8FC42A580421A
:100B4000122DBF8002C333D8FCF452A5803475A7A0
:100B500020122DBF8002C333D8FCFF42CCEF42F3FA
:100B6000E53B64027010AF3CA80704088002C33361
:100B7000D8FC42A6800C122DBF8002C333D8FCF4EF
:100B800052A6853DA7122DAAE53BF0228E368F375F
:100B9000853B3CC20085A73D75A720C2AEE5A120DC
:100BA000E7FB201003123571439A04300F05300E15
:100BB00002C2FA85A23EAF3E7E00D3EF9417EE94B8
:100BC0000050047A208029D3EF942FEE9400500433
:100BD0007A10801CD3EF945FEE940050047A088062
:100BE0000FD3EF94BFEE940050047A0480027A028F
:100BF000E53B607AC39A5004AF3B8002AF028F3E60
:100C0000853E3FC2AFE53E6061E53F602530F92299
:100C1000E53C601EEB30E113853782853683E0F5D5
:100C2000A30537E537700705368003E4F5A3153CC7
:100C3000153FE5A120E019EB30E00E8D828C83E5B5
:100C4000A3F00DBD00010C800385A340153B153EAC
:100C5000200FB2300EAF200009E5A130E3A7D2008B
:100C600080A3E5A120E39EE4F53BD2AF8082300F64
:100C700005300E02D2FA853DA7AF3B227546FF78BC
:100C80008BE6640218466003020D5F7887E618461B
:100C90006003020D5F7884E6FFC4131313540164EC
:100CA000016003020D5F122C385003020D5FE4F562
:100CB00077F578EF541F14601E1460292402600336
:100CC000020D4B7889E618466003020D4B123997E6
:100CD000505A4377018071C37889E6940118E694ED
:100CE0000050688063122C43FFAC06547F4C700B9D
:100CF0007882E664047004F54680507882E66406E3
:100D00007049EF24FE60192481602314602E248131
:100D1000703978A7E664067005757701F578802844
:100D200078AEE664067005757701F578801A7899D3
:100D3000E664067005757701F578800C78A0E664A6
:100D4000067005757701F578E4F546AF46EF339503
:100D5000E04F700BFB7A0079777D02FC123346AFCF
:100D600046227893E61392037890E6FE08E6FFC3E6
:100D70009440EE940040047F4080008F45854546B6
:100D8000788CE6FF547F6401704BEFC4122BAA707D
:100D90001C08120272C2057D02E4FF1224037402D1
:100DA000122B8B15451545788CE6547FF6E4F547F4
:100DB000E545C313FFE547C39F502F788D1202729C
:100DC000120E3B7401122B8B7BFF7A34793F120E8B
:100DD0003B054780DB788D120272C205AD45E4FF0A
:100DE000122403788FE545122B8D7893E654FBF699
:100DF000C37891E69546FF18E69400FEF608EFF6F4
:100E00004E701EE5466440601875AE1175AF0AE578
:100E1000AE20E7FB78927601E4788CF67893F68042
:100E20000B75AE1175AF02E5AE20E7FB30030BE5A5
:100E300046122B94E4FDFF12370622C2057D01E421
:100E4000FF1224032285A72C120194FF90000112A7
:100E500001ADFEE4F5A7EE655E601DEE655E60180F
:100E600053D9F5EE14600C14600E2402700A43D9B5
:100E700008800543D90280009000021201ADF55FA1
:100E80009000031201ADF55B9000041201ADF56016
:100E90009000051201ADF55C9000061201ADF56100
:100EA0009000071201ADF55DAE5FEE7009AE5BEE2E
:100EB0007004F5FBF5FCAE60EE7009AE5CEE7004FC
:100EC000F5E9F5EAAE61EE7009AE5DEE7004F5EBA2
:100ED000F5ECE55A6F60488F5AEF14600F146015F7
:100EE00014602224037038123159803343E2017DAB
:100EF000017F07802543E2027D017F071224717D77
:100F0000017F08801543E2037D017F071224717D74
:100F1000017F081224717D017F09122471D2DE85C0
:100F20002CA722C0E0C0F0C083C082C0D075D00022
:100F3000C000C001C002C003C004C005C006C00795
:100F40001237E28F411237ED8F421237F88F43127A
:100F500038038F44E54130E34412397C1238F1788C
:100F600093122BA1700618E66403600DEF122BABF1
:100F7000700A7892E66402700343420178A8E61290
:100F80002BA3700918E66403700343430278AF1281
:100F90002BA1700918E664037003434304E5413054
:100FA000E203122ACAE54130E1031238F8E5413084
:100FB000E00312352AE54230E2031220ABE542306D
:100FC000E1031221A9E54330E2031213D8E54330CF
:100FD000E10312131AE54230E003121607AF441280
:100FE00037D7D007D006D005D004D003D002D00127
:100FF000D000D0D0D082D083D0F0D0E0328F498BD7
:101000004A8A4B894C85A750E54924FD500F800042
:10101000122A607D7B7C021239307FFC22E5496018
:101020000A7882E6640660037FF722E549122A7196
:10103000894FE54F2405F8E6FF6401600BEF640576
:1010400070037FFB227FFE221239299204122A4A62
:10105000AB4AAA4BA94CA84F12027BE54F2403F8D8
:10106000A64D08A64EE54F2405F87602A203E43308
:101070005401FFE54F2406F8E654FE4FF6E5491407
:10108000600F146024240270397893E64404F680DB
:1010900031122A8040047D408004AF4EAD07789421
:1010A000120272D2057F018016122A8040047D4010
:1010B0008004AF4EAD07789B120272D2057F0212F8
:1010C0002403300403122A598550A77F0022122DD1
:1010D000D0EFC39414748094804003021193ED64A4
:1010E00001700E74572F122DAEE0640170030211CF
:1010F00093122DB6502DA8067401088002C333D870
:10110000FCFB42D4ED6008EB42F1EB42808004EB43
:10111000F452F1A8067401088002C333D8FCF452DB
:10112000A48060122DC7502DA8067401088002C348
:1011300033D8FCFB42D5ED6008EB42F2EB429080E5
:1011400004EBF452F2A8067401088002C333D8FC01
:10115000F452A5802E75A720A8067401088002C34A
:1011600033D8FCFB42CCED6008EB42F3EB42A080AD
:1011700004EBF452F3A8067401088002C333D8FCD0
:10118000F452A6ED6401700974572F122DAE74014C
:10119000F08CA7227546FF788BE618466003021292
:1011A000547884E6541F24FE60030212547887E6C4
:1011B00018466003021254122C43547FFF4E700BEA
:1011C000122C384006E4F546021254C3EF9405EEA3
:1011D000940040030212547882E664067076F54665
:1011E0007889E6547FFF1237D77889E630E70B75A8
:1011F000AE1175AF40E5AE20E7FB7889E620E71831
:1012000075AE94E5AE20E7FB53AFDFE5AE20E7FB1C
:1012100043AF80E5AE20E7FB7889E624FE60162424
:1012200081601D1460252481702A78A7E66403601C
:10123000237601801F78AEE664036018760180147F
:101240007899E66402600D7601800978A0E6640270
:1012500060027601AF46228B2C8A2D892E120194D2
:10126000FF900320F09000011201AD900321F09057
:1012700000021201AD90030BF09000031201AD903B
:10128000030DF09000041201AD90031EF0900005D4
:101290001201AD90030CF0EF6043A312130A900308
:1012A0001E12130A90030CE0FF7D02120A95E4F56A
:1012B0002F12001950537406252FF582E433F5835D
:1012C000AB2CAA2DA92E1201ADFF120003EFF012D4
:1012D0000003E0FF7D02120A95052F80D490030DD4
:1012E00012131290031E12131290030CE0FF7D01E3
:1012F0001210CEE4F52F120019500E120003E0FF79
:101300007D011210CE052F80ED22E0FF7D02120A32
:101310009522E0FF7D011210CE22C2037F01123719
:10132000D71236ED501575AE94E5AE20E7FB53AFFE
:10133000BFE5AE20E7030213D780F612377E4003E5
:101340000213D71239778F4578A7E66403600A083D
:10135000E64402F67546F9805CC378A6E695451822
:10136000E69400500E78A7760108E64402F675462A
:10137000F2804278A2120272AD457F01122986786E
:10138000A8E654FDF6AF457E00C378A6122ECE78AF
:10139000A6E618466006E5456440600678A7760133
:1013A000D203E4F54675AE94E5AE20E7FB53AFFEFD
:1013B000E5AE20E7FB78A8E6FF5401640170183021
:1013C0000304EF54FEF6E545FB7A0078A5122EE102
:1013D000AD467F0312370622C2037F021237D712AF
:1013E00036ED501575AE94E5AE20E7FB53AFBFE583
:1013F000AE20E70302149580F612377E40030214F4
:10140000951239778F4578AEE66403600A08E644A2
:1014100002F67546F9805CC378ADE6954518E6940A
:1014200000500E78AE760108E64402F67546F2806A
:101430004278A9120272AD457F0212298678AFE682
:1014400054FDF6AF457E00C378AD122ECE78ADE6E2
:1014500018466006E5456440600678AE7601D20322
:10146000E4F54675AE94E5AE20E7FB53AFFEE5AE7E
:1014700020E7FB78AFE6FF540164017018300304E5
:10148000EF54FEF6E545FB7A0078AC122EE1AD464E
:101490007F0412370622280000000001040001002A
:1014A000000000000000000157494E555342000063
:1014B000000000000000000000000000000092009A
:1014C0000000000105000100880000000700000086
:1014D0002A00440065007600690063006500490049
:1014E0006E007400650072006600610063006500B4
:1014F0004700550049004400730000005000000000
:101500007B003500420033003400420033003800D5
:1015100042002D0046003400430044002D003400FA
:101520003900430033002D004200320042004200E7
:101530002D003600300045003400370041003400F3
:10154000330045003100320044007D0000000000FF
:101550008D2F8B2C8A2D892E75A7209000021201C9
:10156000ADF5A2E4F5A79000031201ADFF656F6031
:101570000FD200C201122BF3900003123488F56FD2
:10158000900001123488600E24FE600C24FE601767
:10159000240370248019800812347DD20712181693
:1015A00012347DC207800E12347DC2071215FD125F
:1015B0000194FFD207121816AE31AF32AC34AD35FC
:1015C000852F3B7B03120B8CAB2CAA2DA92E9000F0
:1015D000011201AD600E24FD601124FE600D240493
:1015E000701A800F12347DD207800E12347DD2071C
:1015F0001215FD120194FFC20712181622121816B6
:10160000AB2CAA2DA92E22E4FF1237D71236C640E2
:10161000051236B9501D75AE11E4F5AFE5AE20E701
:10162000FB75AE1175AF80E5AE20E7FB78927601D1
:10163000E408F612377250717893E6FF122BAA7005
:1016400003EF80627892E66401704C788CF6122A7F
:101650008A7F84121769EF3395E0FEBEFF17BFFD46
:10166000147884E6FFC413540370051220298039CE
:1016700012005E80347884E6FFC4131313540170A3
:10168000287892E664036021788BE61846601A7821
:1016900093E64408F680127892E664037005121E01
:1016A0000B80067893E64402F67892E664027008AE
:1016B0001236D34003120D62228F49ED6406600397
:1016C00002175D12175E12324E400A054BE54B7051
:1016D000F5054A80F1E4FF123948E4F54AF54B126A
:1016E000324E400A054BE54B70F5054A80F1121762
:1016F0005E12324E400A054BE54B70F5054A80F10B
:10170000E4FF123948E4F54AF54B12324E400A051F
:101710004BE54B70F5054A80F17F01123948E4F53D
:101720004AF54B12324E400A054BE54B70F5054A1F
:1017300080F1E4FF1239487B017A00792975500065
:10174000755106C2037F03121B3B7B017A01796B43
:10175000755000755140C2037F04121B3B227F016C
:10176000123948E4F54AF54B228F45E4F546F54732
:101770007548FDA807E664C07026E82405F9E7640B
:101780000419476003021813F548F54675472812F7
:10179000325F50048E468F477BFF7A1479968028FB
:1017A000A845E664C17030F548E82405F9E764050A
:1017B0001947705FF54675479212325F50048E46A6
:1017C0008F477BFF7A1479BE85464D85474EC2030D
:1017D000E4FF120FFD803CA845E664407035E80444
:1017E000F8E66452702DE5452403F9E764A570041A
:1017F00019E764A5701DE5452405F9E7194770133D
:10180000E5452407F9E719477009F8F6F5A775EFDC
:101810001280FEAF4822EF1202D4185A00185F015E
:10182000186402186903186E0418730518780618EE
:101830007D07188208188709188C0A18910B1896CA
:101840000C189B0D18A00E18A50F18AA1018AF1190
:1018500018B41218B913000018BDA207928022A272
:1018600007928122A207928222A207928322A207D4
:10187000928622A207928422A207928522A2079230
:101880008722A207929022A207929122A207929207
:1018900022A207929322A207929422A20792952253
:1018A000A207929622A207929722A20792A022A2B2
:1018B0000792A122A20792A222A20792A322C0E02D
:1018C000C0F0C083C082C0D075D000C000C001C0CD
:1018D00002C003C004C005C006C00775A7008598F4
:1018E000587F0212375AE55830E02F900345E060E8
:1018F00026900347E0FEA3E0F5828E83E599F09001
:101900000347E475F0011201EC900345E014F0E0A8
:10191000700812396C8003859959E55830E1299097
:101920000346E06020900349E0FEA3E0F5828E8349
:10193000E0F599900349E475F0011201EC9003463B
:10194000E014F0800312398DD007D006D005D00402
:10195000D003D002D001D000D0D0D082D083D0F03C
:10196000D0E0327546FF788BE618466003021A0015
:101970007884E6541F24FE6003021A00122C43549C
:101980007FFF4E700A122C384005E4F5468071C383
:10199000EF9405EE940050687887E61846706178F9
:1019A00082E66406705AF5467889E6547FFF12375E
:1019B000D77889E630E70B75AE1175AF10E5AE202C
:1019C000E7FB7889E620E71075AE94E5AE20E7FBEB
:1019D00043AF20E5AE20E7FB7889E624FE601124C2
:1019E0008160131460162481701678A77606801023
:1019F00078AE7606800A78997606800478A0760616
:101A0000AF46228F7385A774EF6005122A51400DEF
:101A1000122A607D6E7C011239307FFC2212392936
:101A20009214122A4AE57324FE601A146027146087
:101A30003F24037054789976067F01121A95E5AE1B
:101A400030E74680F978A076067F02121A95E5AE57
:101A500030E73680F978A776067F011237D775AE62
:101A600094E5AE20E7FB43AF20E5AE30E71B80F9FD
:101A700078AE76067F021237D775AE94E5AE20E7D2
:101A8000FB43AF20E5AE20E7FB301403122A598553
:101A900074A77F00221237D775AE1175AF10228F51
:101AA0007585A776EF6005122A51400D122A607DD8
:101AB0001C7C021239307FFC221239299215122A1D
:101AC0004AE57524FE601A14602714603F240370F1
:101AD00054789976017F01121B31E5AE30E74680DC
:101AE000F978A076017F02121B31E5AE30E736802F
:101AF000F978A776017F011237D775AE94E5AE204D
:101B0000E7FB53AFDFE5AE30E71B80F978AE760137
:101B10007F021237D775AE94E5AE20E7FB53AFDFF7
:101B2000E5AE20E7FB301503122A598576A77F0022
:101B3000221237D775AE11E4F5AF228F4C8B4D8A48
:101B40004E894F85A753E54C601624FD6012146042
:101B50000F8000122A607D1A7C011239307FFC222E
:101B6000E54C600A7882E6640660037FF722E54C64
:101B7000122A718952E5522405F8E6FF6401600BD0
:101B8000EF640570037FFB227FFE22123929920445
:101B9000122A4AAB4DAA4EA94FA85212027BE55217
:101BA0002403F8A65008A651E5522405F87603A2AE
:101BB00003E4335401FFE5522406F8E654FE4FF6E1
:101BC00054F7F6300403122A598553A77F00228F59
:101BD00032E4F5341230E9EF7003021C607FF0123A
:101BE0002FFE7D40EDFF7E00D394007480948040F2
:101BF0006FEF24FFFFEE34FFFEEF7803CEC313CE6A
:101C000013D8F9F53312317DEF24FF920012317DA4
:101C1000EF24FF9201300108300020E4F5348040C9
:101C2000200018E532D39D500EE5326D600D740C26
:101C30002533F8E630E004D2008D34A200E433FF0F
:101C4000123517740C2533F8E6C313FFA200E433F2
:101C500075F080A42FFF740C2533F8A6071D80842F
:101C6000AF34228B268A27892885A729122A4A126F
:101C7000399BE4FFEFC394397480948050097480D9
:101C80002FF8E4F60F80ED122A6A12028478B0125F
:101C90002A679000031202A478B3122A6790000604
:101CA0001202A478B6122A679000091201AD788159
:101CB000F6122A7975A72043B32075A72053B57F64
:101CC00075AE0175AF08E5AE20E7FB75AE0B75AFDD
:101CD0000FE5AE20E7FB12002678827603122A5920
:101CE0008529A775AE0175AF01E5AE20E7FB7F0042
:101CF000227546FF7886E66003021D7C7884E654F0
:101D00001F7079788BE61846707218E61846706C6A
:101D10007882E66404702E122C4AFF4E6009122C61
:101D20002D6F7001EE70557887E67880F6122C2DB5
:101D3000788766700218E67040D203122B437F0644
:101D4000122E0E80347882E664067030122C4AFF20
:101D50004E600A122C2DB50723E4B5061F7887E6DE
:101D60007880F67887E61846700A7F04122E0E12E5
:101D70002FD58005C203122B43E4F546AF462278E7
:101D80007FE4F6D8FD7581BA021DC6022C66E49385
:101D9000A3F8E493A34003F68001F208DFF480295E
:101DA000E493A3F85407240CC8C333C4540F44204D
:101DB000C8834004F456800146F6DFE4800B01023C
:101DC0000408102040809028FDE47E019360BCA3AD
:101DD000FF543F30E509541FFEE493A360010ECF8A
:101DE00054C025E060A840B8E493A3FAE493A3F8B4
:101DF000E493A3C8C582C8CAC583CAF0A3C8C58274
:101E0000C8CAC583CADFE9DEE780BE7893E61392CD
:101E10000312380E8F45C37891E69F18E694005060
:101E20000E7892760108E64402F67546F2805578FF
:101E30008D120272AD45E4FF122986AF457E00780F
:101E40008FEF26F618EE36F6C37891E69FFF18E678
:101E50009EFEF608EFF6E4F546EF4E701CE545648D
:101E600040601675AE1175AF48E5AE20E7FB78927D
:101E7000760108E654FEF6800B75AE1175AF40E5AD
:101E8000AE20E7FB30030CE545122B94AD46E4FF92
:101E900012370622E4F5259000007402F0E4F525DF
:101EA000C3E525941474809480504974572525F512
:101EB00082E43401F583E024FC601724037025AF2D
:101EC0002512276EE433FF121F57EF121F39E4F07B
:101ED000801DAF25122319AC06121F57EC121F39B3
:101EE000EFF0800B121F5774FF121F3974FFF005BB
:101EF00025021EA0121F78120480EF3395E04F6078
:101F0000197B017A007900754D00754E29C2037F57
:101F100001120FFD121F7812016E227F067A0079DE
:101F2000297E007D007B010204A414FFE4FCFD7BFC
:101F3000E87AFDF9F8D3020250F0E52525E0240205
:101F4000F582E43400F583227E017F067A01796B05
:101F50007D007B010204A4E52525E02401F582E44F
:101F60003400F583227B017A01796D90016CE0FDEC
:101F7000227B017A01796C22782E7C017D017B0124
:101F80007A0079007E007F2922E4F579F57A7B01D9
:101F900022057AE57AAE7922900029E0FF90002BA5
:101FA000E022AE07E4FB1237D7300513A8067E0007
:101FB0007410088005C333CE33CED8F9FF8013AF39
:101FC000067E007420A807088005C333CE33CED820
:101FD000F9FFD3ED9FEC9E5003430380300603438B
:101FE000034030042043032030050343030475AE4F
:101FF0001175AF40E5AE20E7FB75AE128BAFE5AED5
:1020000030E72580F975AE1475AF80E5AE20E7FBAB
:1020100075AE158BAFE5AE20E7FB20050B75AE1254
:10202000E4F5AFE5AE20E7FB22E4F5457885E6125E
:1020300002D4205100205801205F03206605206D46
:1020400006207408207B0920820A20890B000020CA
:1020500090120C7C8F45803B1211948F4580341276
:1020600019638F45802D1224D98F45802612088F41
:102070008F45801F1228668F458018121CF18F45EE
:102080008011122B078F45800A122C9F8F458003E9
:102090007545FFE4FF1237D7AF45EF3395E0FEBE3D
:1020A000FF06BFFF0312005EAF45227F021237D743
:1020B0001236E0500D75AE11E4F5AFE5AE30E76BCA
:1020C00080F978A0E664027062789E122EEB94404C
:1020D000EE940040047F4080008F45789F122ECB05
:1020E00078A1E6139203789E122EEB9400EE9400F2
:1020F000401FD3EF9440EE940040047D408004786C
:102100009FE6FD789B120272D2057F0212240380A3
:102110000978A1E654FEF618760130030EE54578FD
:102120009E122EDEE4FD7F0212370622120100020B
:10213000FF000040C4107E8A14010102030109025D
:102140002E00010100C0320904000004FFFFFF005F
:1021500007058102400001070582024000010705D2
:1021600001024000010705020240000104030904C6
:1021700001160354726565686F7070657200011E08
:102180000354726565686F70706572205553420024
:10219000FF216CFF2170FFF840FFF800FFF840FFBF
:1021A000212CFF213EFF2190057F011237D71236E7
:1021B000E0500D75AE11E4F5AFE5AE30E76780F99C
:1021C0007899E66402705E122EE99440EE94004025
:1021D000047F4080008F457898122ECB789AE613C2
:1021E0009203122EE99400EE9400401FD3EF944026
:1021F000EE940040047D4080047898E6FD789412C7
:102200000272D2057F011224038009789AE654FEF7
:10221000F618760130030EE5457897122EDEE4FDC0
:102220007F01123706228B2F8A3089318D32C2AF5F
:10223000AF34AE331238C97D01AF34AE331234A59A
:10224000E5342401FFE43533FEE5320425E0FD12D8
:1022500034A5E5342402FFE43533FE7D031234A5B2
:10226000E4F535F536C3E53695327480F865359872
:10227000502EE5342403FFE43533FEE5362FFFE529
:10228000353EFEAB2FAA30A93185368285358312C3
:1022900001ADFD1234A50536E53670C9053580C59A
:1022A000D2AF228F4BE4F54D85A74EEF6005122A81
:1022B00051400F122A607D4D7C00123930754DFC63
:1022C000804B1239299204122A4AE54B122A71894D
:1022D0004CE54C2405F8E664016032E54B24FE60D1
:1022E0000E146012146013240370147F0180027FA7
:1022F00002122D0F80097F0180027F02122D43E51B
:102300004C2405F87601E54C2406F8E4F630040385
:10231000122A59854EA7AF4D22ADA7E4F5A7742226
:102320002FF582E43403F583E01202D42366002300
:102330004801235C02235203234D042361052357E4
:1023400006236E070000237475D11C801C75D11CF8
:10235000801F75D19C801275D19C801575D1948099
:102360000875D194800B75D18C75BC01800675D130
:102370008CE4F5BCEF90341993F5BBD2EC30EDFD55
:10238000C2EDE5BEC313FEE5BD13FF8DA722759711
:10239000A57597FF7F297A007900121F217E007FA3
:1023A000297A01792E121F50121F1B121F487E001E
:1023B0007FFF7D007B017A00792F1204A4122FABDE
:1023C00012372A12394E12387D1239221238411230
:1023D000315912309CE4F52DF52EAF2E7D011210EF
:1023E000CE7457252EF5827401352DF583E4F00562
:1023F0002EE52E7002052DC39414E52D6480948083
:1024000040D8228F518D528B538A548955E5AE2086
:10241000E7FBE5514420F5AEE55314601324036057
:102420001A146020147026AD55AF52123441801D2D
:10243000AC54AD55AF521233C48012AD55AF5212E9
:1024400034558009AC54AD55AF521233AD30052030
:10245000D3E5519400748094804015AF511237D762
:1024600075AE91E5AE20E7FB43AF01E5AE20E7FB9B
:1024700022122DD0122DB6501DA80674010880021C
:10248000C333D8FCFBF4FA52D4ED6005EB42A480D0
:1024900045EA52A48040122DC7501DA806740108B9
:1024A0008002C333D8FCFFF4FB52D5ED6005EF4248
:1024B000A58023EB52A5801E75A720A806740108ED
:1024C0008002C333D8FCFFF4FB52CCED6005EF4231
:1024D000A68003EB52A68CA7227546FF122C4AFF5A
:1024E000C39480EE94005054788BE61846704D7873
:1024F00084E6541F70467889E61846703F7882E675
:102500006403700BEF4E601A7F04122E0E80137856
:1025100082E66404700F7887E6184670057F031220
:102520002E0EE4F546AF46EF3395E04F700EF5AE54
:102530007887E64480F5AFE5AE20E7FBAF4622851D
:10254000A77C1236AC505875A72053B3BC122A7919
:1025500043B5011238E1921275A71053C1CF12385A
:10256000E95017D21175A72043C602E4FFEFC394C8
:10257000037480948050050F80F3C21112330E1241
:1025800036AC40F830110675A72053C6FD30120650
:1025900075A71043C130122A7975A72043B340852F
:1025A0007CA722750A417E007F087D007B007A00AF
:1025B000790C1204A4E50A6032FF121BCF8F0AE4E3
:1025C0009002EAF078EB7C027D01FB7A00790CFE48
:1025D0007F0812016E7F0212304E40F912322C75C4
:1025E0004E09C2037F02120FFD80CA9002EA74FFF7
:1025F000F07F0212304E40F912322C754E09C203A0
:102600007F02020FFD90002AE024FE602214602861
:1026100014601314602E24047034900029E0FF7DB0
:10262000011210CE8028121F98FD122E9D801F903F
:102630000029E0FF7D028007900029E0FF7D031262
:102640000A95800A121F9824FF9207121816121F6B
:102650001B7B017A007929755000755106C2037FF2
:1026600003021B3B8B328A3389348D35E4F536E522
:1026700036C39535504790030BE0940874809480DE
:10268000AB32AA33A934402275F002E536A4F582B4
:1026900085F0831201ADFE75F002E536900001125F
:1026A00002661201ADFDEDFF800C85368275830058
:1026B0001201ADFF7E00123134053680B222E4F5FE
:1026C00032F533F531E53112386B500FAF3112234B
:1026D00019EF6233EE6232053180EA53333F7532CF
:1026E00000D3E533943DE532940040067532007521
:1026F000333DC3E533940AE53294005006E53324B4
:1027000030FF22C3E5339424E5329400E5335004CE
:102710002437FF22243DFF22E4F5A7120194F50B94
:1027200014600A1460382402704302392212391BE3
:102730009000011201ADF58D9000021201AD60050F
:10274000538EF78003438E089000031201AD60059D
:1027500053A4EF800343A41012324702361C758D38
:1027600030438E0853A4EF12391B12395A22EF90CE
:10277000346993FE122DB65015A8067E0074010828
:102780008005C333CE33CED8F9FFAD80802F122D14
:10279000C75015A8067E007401088005C333CE33E8
:1027A000CED8F9FFAD908015AF067E007401A80762
:1027B000088005C333CE33CED8F9FFADA0EF5D243A
:1027C000FF22300C50E51E7018755701E557C39570
:1027D0001D5018E557123360D2071218160557809E
:1027E000EBE51E123360C20712181675A710E51E1E
:1027F00075F003A424AEF582E43402F583E0FEA371
:10280000E08EA5F5A4051EE51EB51D09200B0312DB
:102810003404E4F51E228B2C8A2D892E1201942477
:10282000FE60282402703EAB2C900002120012FFC2
:102830001231A1AB2C12000FFDD394007480948050
:102840004023E92403F9E43AFA8017AB2CE52E245F
:1028500002F9E4352DFAC002C00112000FFDD001CB
:10286000D002122664227FFF7889E6184670451848
:10287000E61846703F788BE6640118467036788417
:10288000E6FEC4131313540164017028EE541F7044
:10289000237882E6640470087BFF7A34793F800CE9
:1028A0007882E66406700DFB7A0079807D01FC1267
:1028B0003346E4FF228D2CAF2CD3EF941474809414
:1028C00080503975A710EF700CF5A5F5A4C20C5314
:1028D00098FBF51F22D20BE52C78717C0212337025
:1028E00012016E852C1F200C11123404E4F51E43D6
:1028F0009804D20C74FFF5A5F5A4C20B2201710057
:10290000017200C11302B9FFFF015F00015B00010A
:102910006000015C00016100015D00015A00015E80
:1029200000C10BC10CC10DC10EC10FC110016F0060
:1029300002790000410346004103450001090001FE
:1029400008000085A72512399E1238FF1239061299
:10295000384B12398112390D1233EF12339412357C
:10296000B312362A1238551237AB12385F12363787
:102970001236441239851236511239891235A31292
:1029800038AE8525A7228F478D488B498A4A894BC7
:10299000D3E548940074809480402CE5AE20E7FB9A
:1029A000E54744E0F5AEE54914600E2403601224C7
:1029B000FE7014122EF202003EAC4A122EF20232C7
:1029C0006F122EF21232D022C0E0C0F0C083C0825B
:1029D000C0D075D000C000C001C002C003C004C098
:1029E00005C006C00775A71053983F1227C2D0072D
:1029F000D006D005D004D003D002D001D000D0D072
:102A0000D082D083D0F0D0E032E4F52FF530F52F2E
:102A1000123869500BE4FDAF2F122E9D052F80F068
:102A2000E4F52F123869500E1226BE7462252FF875
:102A3000A607052F80EDE4F52F123869500B7D01B4
:102A4000AF2F1210CE052F80F02275A71053CEFEA7
:102A500022C39405748094802275A71043CE01226E
:102A60007BFF7A3279B12212027BAB26AA27A928F2
:102A70002275F007A4248DF92275A72053B5F822FA
:102A8000D3E54E9440E54D940022754584A9457ADE
:102A9000007B007D08E4FF12298675AE1175AF40FA
:102AA000E5AE20E7FBE5452402122B7E2402122B23
:102AB000B2E5452404122B7E2404122BB2E54524F2
:102AC00006122B7E2406122BB22278927601789978
:102AD000760678A0760678A7760678AE760675AE86
:102AE0000F75AF8FE5AE20E7FB75AE0175AF01E561
:102AF000AE20E7FB75AE0B75AF0FE5AE20E7FB7FB1
:102B000003122E0E02399A122C437DFFC39401EE5C
:102B10009400502C788BE66401184670237887E681
:102B20001846701C7884E6648170157882E6640625
:102B3000700E7BFF7A34793F7D01FC123346E4FD51
:102B4000AF05223003107899760178A0760178A736
:102B5000760178AE7601122C5B7F01121FA2122C37
:102B60005B7F02122B707F01122B707F02021FA26B
:102B7000121FA2C204D205C2067D407C0022F8E6E4
:102B8000FC08E6FAECFFEAFEE54522788F26F61807
:102B9000E436F622FB7A007890E6F54C08E6F54D2F
:102BA00022E6FFC31354016401221313135401647A
:102BB0000122F8A60608A607228E398F3AE4F53BD3
:102BC00090030BE0FFE53BC39F5027740E253B129B
:102BD0000007E0FFC007AE39E53AA83B088005CE04
:102BE000C313CE13D8F9139207D007121816053B5A
:102BF00080CE22AEA775A720A200920FA201920E4E
:102C0000D210C2F83000047D4080027D00ED4FF507
:102C1000A130010DD2FA300003D38001C392FB80B2
:102C200004C2FAC2FB53F80FD2F88EA72278B3126F
:102C300002729000050201AD7882E6C394047480AC
:102C40009480227888E6FE08E6227886E6FE08E68A
:102C5000221202728B478A48894922D204D205C2C5
:102C6000067D407C002212294312238E30130BC2B2
:102C70001374FF78B9F608F6800E78BAE618466045
:102C80000708E6161870011678BAE618467008129A
:102C90000076EF640660037597A51232EF80CD7F52
:102CA000FF7889E6FE7887E6FDEEC3940174809490
:102CB0008050237882E66406701C788BE618467094
:102CC00015AE05EE70107884E6541F64017007C2DB
:102CD00003122B43E4FF22AEA7E4F5A790033EEFD7
:102CE000F0900338ECF0A3EDF0900336EAF0A3EB9C
:102CF000F0900340E53AF090033FE53BF09003434A
:102D000074FFF0300804D2098002D2C58EA72212C7
:102D100037D775AE1175AF08E5AE20E7FB75AE91FC
:102D2000E5AE20E7FBE5AF20E3F375AE1175AF0824
:102D3000E5AE20E7FB75AE91E5AE20E7FBE5AF2001
:102D4000E3F3221237D775AE1475AF10E5AE20E766
:102D5000FB75AE94E5AE20E7FBE5AF20E4F375AE7E
:102D60001475AF10E5AE20E7FB75AE94E5AE20E735
:102D7000FBE5AF20E4F3227D027F01120A957D027C
:102D80007F0A120A95E4F514751580F51675170A71
:102D900074FFF518F519751A01751B80751C007BF9
:102DA000007A0079147D030228B57457253AF5821C
:102DB000E43401F58322EFC394087480948022AF39
:102DC0003CA80774010822EFC394107480948022F9
:102DD000EF90346993FEACA7E4F5A722D3EF9400FB
:102DE000EE940240047E027F00C3EF9402EE940052
:102DF00050047E007F025307FEEEC313EF13FF1F44
:102E0000ADA775A720C2F88FA2D2F88DA7228F4751
:102E10007882E6F548122A514009EF122A525003EF
:102E2000122FD5E547640570047883A6487882A6FA
:102E300047E54865476007AD47AF481216B92275A8
:102E40007DFFC218EF25E0FFAC02AD01E5322401A1
:102E5000F9E43531FAAB0185333A85343B122CD78E
:102E60003018FDAB30AA31A932E57D0201DA9003BA
:102E70001FE064016026E4F57E90030BE0FFE57E31
:102E8000C39F5012740E257E120007E0FF7D0112D1
:102E900010CE057E80E390031F7401F0228F3185F0
:102EA000A732E4F5A774222531F582E43403F583D3
:102EB000EDF01236FAE064046010E4FDAF31121058
:102EC000CE8532A71236FA7404F0227E00C3E69F44
:102ED000F618E69EF618EF26F618EE36F622FB7A7E
:102EE00000E6F54C08E6F54D227897E6FE08E6FF89
:102EF000D322AD4BAB47AF4822157FA87FA605155F
:102F00007FA87FA607157FA87F12312AE6A87F0831
:102F10006005E642C08004E6F452C0A87FE6F5A74B
:102F2000057F057F057F22AEA775A720AC9A5304C5
:102F3000CCED5403FDEF5403C454F04D4204E5A11D
:102F400020E60DEB6007430402F5A280035304FD65
:102F50008C9A8EA72290031FE06025E4F539900338
:102F60000BE0FFE539C39F5012740E25391200079C
:102F7000E0FF7D02120A95053980E3E490031FF01B
:102F80002275A70030D808855FFB855BFCC2D8306E
:102F9000D9088560E9855CEAC2D930DA088561EB39
:102FA000855DECC2DAC2DF53F7DF3290F800E493BC
:102FB000F4700E122A097B007A0079627D081238BB
:102FC000B790F840E493F4700B7BFF7A3779C17DBA
:102FD0000A1238C02285A74A1239299203122A4AB6
:102FE000754901C3E549122A525009AF491222A37B
:102FF000054980EF300303122A59854AA7228F35ED
:10300000E4F536C3E5369408748094805017AF36E3
:10301000A807E535088002C313D8FC5401FF123518
:1030200017053680DE22E4F533F532C3E532940825
:1030300074809480501512317DAE32A806EF08805E
:1030400002C333D8FC4233053280E0AF33228F32E3
:10305000C3EF122A52400C122A607D9E7C00123966
:1030600030D322E532122A71E92405F8E6640170B2
:1030700002C322D322157FA87FA607157F157FA83C
:103080007F0812312AE5C056A87FF6A87F08E6F52A
:10309000A7A87FE6FF057F057F057F22E4F51DF5E4
:1030A0001FF51EFE7F3CFD7B017A0279AD1204A460
:1030B0007E007F3C7D007B017A0279711204A4536B
:1030C00098FB22AB07AA06ACA7E4F5A7EB2401FE08
:1030D000E43A900349F0A3CEF0ED14900346F08B50
:1030E000828A83E0F5998CA722E4F5A7758D305389
:1030F0008EF7C299D29C7599F03099FD3098FDAF4A
:1031000099438E08EF64F060037F01227F002290D4
:10311000033CE475F00112020285F082F58322AED1
:10312000A7E4F5A753C1BF8FD722A6A7E4F5A7A8A8
:103130007F0808228E378F38122F5590030DE0FF3D
:10314000D20712181690031EE0FFC207121816AF1E
:1031500038AE37122BB90231C485A72FE4F5A7C2C8
:10316000DE7D017F071210CE7D017F081210CE7D1B
:10317000017F091210CE53E2FC852FA722C299AF1E
:1031800099D29C7599FF3099FD3098FDAF99EFF475
:1031900070047E0180027E00EE60037F01227F00CA
:1031A000228F32122F5590030DE0FFC2071218161E
:1031B00090031EE0FFC207121816AF327E00122BDA
:1031C000B90231C41231DC90030CE0FFD2071218AF
:1031D000161231DC900321E0FF0237B690030CE0B9
:1031E000FFC20712181622AD07ED4480F5AEE5AE1A
:1031F00020E7FBAFAFEF7F00FEED144480F5AEE5B6
:10320000AE20E7FBADAFED420722E4FFC21AAEA746
:1032100075A720EFC3940374809480500AE5A13011
:10322000E702D21A0F80EC8EA7A21A227B017A0243
:1032300079EA754D0022853082758300A3A3AB2CFB
:10324000AA2DA92E0201AD7E027FEA7D2022AE4A80
:10325000AF4BE4FCFD7B607AEAF9F8D3020250E858
:103260002406F8E6FE08E6FFC39547EE9546228D54
:10327000828C831FEF600BE5AE20E7FBE5AFF0A388
:1032800080F1E5AE20E7FBEB4420F5AEE5AFF022A0
:103290001201946018E4F5A79000011201ADF58CBD
:1032A00012353C1238A5D200E4FF02007E123841EC
:1032B000222E5C6C69625C65666D385F7573625C5A
:1032C0007372635C65666D385F757362642E63004C
:1032D000A8051FEF600BE5AE20E7FBE5AFF2088025
:1032E000F1E5AE20E7FBEB4420F5AEE5AFF2227F3F
:1032F0000312304E40031226057F0412304E400365
:103300001204EE7F0112304E4003121E9422E5A9F2
:10331000547FFF75A930E4F5A7439A408FA9E5A92A
:10332000547F6F6005E4F5A98FA92212311F75D66D
:10333000FF90033AECF0A3EDF0900344EBF0E4903F
:103340000341F08EA7227892E664017012788D1204
:10335000027B7890A60408A605087602E408F62207
:1033600075F003A424ADF582E43402F583E0FF2276
:1033700075F003A4FFAEF07D0122ADA7E4F5A7E54B
:1033800098540475F040A4FFAEF0AC99ECFBEF4B01
:10339000FF8DA722AF885388AF758CF3758D30757C
:1033A0008B34EF5440FEEF54104E4288228D828CB5
:1033B00083AE071FEE600CE5AE20E7FBE493F5AFAC
:1033C000A380EE228D828C83AE071FEE600BE5AEEC
:1033D00020E7FBE0F5AFA380EF228F56E55624FEF1
:1033E000600424027003123560D21885567D22E4F1
:1033F000F5A7F5A9E5A9548060FA75A903E5A954D4
:103400008060FA22851F1DE51F78AD7C02123370A3
:103410007B017A02797102016E0001020306040544
:103420000708090A0B0C0D0E0F1415161712034D81
:1034300000530046005400310030003000EE000020
:1034400000A805AE071FEE600BE5AE20E7FBE6F532
:10345000AF0880EF22A805AE071FEE600BE5AE2097
:10346000E7FBE2F5AF0880EF220001020306040546
:1034700007000102030405060700010203AB2CAAA2
:103480002DA92E120194FF22AB2CAA2DA92E0201E8
:10349000AD756A01756B98756C01E4F56DFB7A008A
:1034A000796A0227188F828E8375B7A575B7F143A5
:1034B0008F01EDF0538FFC22C219AEA775A7203003
:1034C000F9048FA3D2198EA7A21922C21FAFA77524
:1034D000A720E59B30E702D21F8FA7A21F22C220A0
:1034E000AFA775A720E59B30E302D2208FA7A220CB
:1034F00022EF600CD200C201AF6F122BF3023873BF
:1035000012387D22AB07AA06ADA7E4F5A7EA24FF8F
:10351000929B8B998DA722C29CC299EF60057599E9
:10352000FF8003E4F5993099FD227882E6C3940286
:103530007480948040057F05122E0E22AFA7E4F51B
:10354000A7F5C1F5ACF5C0F5D7F5D68FA722E49065
:103550000340F090033FF0900342F0C208C20922FA
:10356000AFA7E4F5A753C17F43C18053C0C78FA75E
:1035700022E5A1A2E6920FE5F8540C24FF920ED2A8
:103580001022AFA775A720E5A120E0FBAEA38FA76F
:10359000AF0622E5C8540453C8FB43C81043C8040F
:1035A00042C82275E69175A71075CE10E4F5A7758F
:1035B000A89022E59154045391FB75943C439104E7
:1035C000429122AFA775A720E5F75470C4540F8F1E
:1035D000A7FF22AEA7E4F5A753984FEB4F4DF59800
:1035E0008EA722AFA775A720A2F9B3921B8FA7A21F
:1035F0001B22AFA7E4F5A7A2C092168FA7A216229E
:1036000090033CEEF0A3EFF0900342EDF022AEA762
:1036100075A720EFF4440F52F88EA722900347EECF
:10362000F0A3EFF0900345EDF02275A710E5985454
:10363000045398FB42982253F77F75DBCA75E95A09
:1036400075EA5A2253F77F75DCCA75EB1475EC14D2
:103650002275A20143A14053F8F343F80122AFA71A
:1036600075A720E5F854F08FA7FF22AEA775A72015
:1036700030F9FD8FA38EA722AFA775A72053F80EB0
:10368000C2AE8FA722AFA775A720E5F754078FA773
:10369000FF22AFA7E4F5A7E59854038FA7FF22C246
:1036A000ACE4F5A7C2998F993099FD2275AE81E5FA
:1036B000AE20E7FBE5AFA2E12275AE91E5AE20E7D3
:1036C000FBE5AFA2E42275AE91E5AE20E7FBE5AFE6
:1036D000A2E22275AE91E5AE20E7FBE5AFA2E122C2
:1036E00075AE91E5AE20E7FBE5AFA2E52275AE949D
:1036F000E5AE20E7FBE5AFA2E62274572531F5825F
:10370000E43401F583228F488D498A4A8B4BE4FECD
:10371000FF22AFA7E4F5A7AEC28FA7AF0622AFA7DF
:10372000E4F5A7A21792C18FA72275A72043F40240
:10373000439C02C2B122AFA775A720AEA38FA7AF4B
:1037400006221238D1A2E3921C8FA7A21C221238A3
:10375000D1A2E1921D8FA7A21D22AEA7E4F5A7EF8B
:10376000F452988EA722AFA7E4F5A7AE998FA7AF22
:10377000062275AE91E5AE20E7FBE5AF132275AEEC
:1037800094E5AE20E7FBE5AF1322AFA775A7205362
:10379000B37F8FA722122A4A12378AE4FF022E0E25
:1037A00012311FED4401F5D68EA722C2DE75D9096C
:1037B000759607D2DE22E4FEEEC39F50030E80F81A
:1037C0002254726565686F70706572001238D1138B
:1037D000921E8FA7A21E2275AE0E8FAFE5AE20E718
:1037E000FB2275AE86E5AE20E7FBAFAF2275AE8259
:1037F000E5AE20E7FBAFAF2275AE84E5AE20E7FB78
:10380000AFAF2275AE8EE5AE20E7FBAFAF2275AE4F
:1038100096E5AE20E7FBAFAF22AFA7E4F5A7C2C0A5
:103820008FA722AEA7E4F5A78FC28EA722AFA7E489
:10383000F5A7D2C58FA722AFA7E4F5A7D2C48FA75B
:103840002212356043D44853E1FB2275BC3075B376
:103850008243E8C022E4F5A77589224388502253A9
:10386000F77F75DACAE4F5FC22E52FC3940874806B
:1038700094802243A40753D4F843E1022243D4079F
:1038800053A4F853E1FD22AFA7E4F5A7D2998FA77F
:1038900022AEA7E4F5A78F998EA722AFA7E4F5A7DC
:1038A000F5988FA72253D4B743E1040235607BFF1C
:1038B0007A21799F021C637533F875340002222641
:1038C0007533F8753440022226438F02E4FD02343A
:1038D000A5AFA775A720E5A122E4FBFD7F10023567
:1038E000D375A710E5C1A2E52275A720E5C633B3BD
:1038F000228E458F46D213227883E6FF022E0E7564
:10390000A720759C0222E4F5A775E3402275A71055
:1039100075C1302275A70053913F3253D4CF43E194
:10392000012243D43053E1FE2275A710E5CE1322C5
:103930008C548D5580FE900340E0FF2290033FE0C1
:10394000FF22900341E0FF22EF24FF92B122E4F531
:103950005AF55E22E4900346F022E4900345F022FB
:10396000900346E0FF22900345E0FF221232470217
:10397000361C8F2C02238E7F170231E77F0D023118
:10398000E775D10C2243C1DC2243981022E4F509EB
:10399000228F7B22D21822D32222222222222222EA
:00000001FF
